{
	"Flashloan/exchange/Exchange.sol": {
		"Exchange": {
			"abi": [
				{
					"inputs": [],
					"stateMutability": "nonpayable",
					"type": "constructor"
				},
				{
					"inputs": [],
					"name": "buyDAI",
					"outputs": [],
					"stateMutability": "nonpayable",
					"type": "function"
				},
				{
					"inputs": [
						{
							"internalType": "address",
							"name": "",
							"type": "address"
						}
					],
					"name": "daiBalances",
					"outputs": [
						{
							"internalType": "uint256",
							"name": "",
							"type": "uint256"
						}
					],
					"stateMutability": "view",
					"type": "function"
				},
				{
					"inputs": [
						{
							"internalType": "uint256",
							"name": "_amount",
							"type": "uint256"
						}
					],
					"name": "depositDAI",
					"outputs": [],
					"stateMutability": "nonpayable",
					"type": "function"
				},
				{
					"inputs": [
						{
							"internalType": "uint256",
							"name": "_amount",
							"type": "uint256"
						}
					],
					"name": "depositUSDC",
					"outputs": [],
					"stateMutability": "nonpayable",
					"type": "function"
				},
				{
					"inputs": [
						{
							"internalType": "address",
							"name": "_tokenAddress",
							"type": "address"
						}
					],
					"name": "getBalance",
					"outputs": [
						{
							"internalType": "uint256",
							"name": "",
							"type": "uint256"
						}
					],
					"stateMutability": "view",
					"type": "function"
				},
				{
					"inputs": [],
					"name": "owner",
					"outputs": [
						{
							"internalType": "address payable",
							"name": "",
							"type": "address"
						}
					],
					"stateMutability": "view",
					"type": "function"
				},
				{
					"inputs": [],
					"name": "sellDAI",
					"outputs": [],
					"stateMutability": "nonpayable",
					"type": "function"
				},
				{
					"inputs": [
						{
							"internalType": "address",
							"name": "",
							"type": "address"
						}
					],
					"name": "usdcBalances",
					"outputs": [
						{
							"internalType": "uint256",
							"name": "",
							"type": "uint256"
						}
					],
					"stateMutability": "view",
					"type": "function"
				},
				{
					"inputs": [
						{
							"internalType": "address",
							"name": "_tokenAddress",
							"type": "address"
						}
					],
					"name": "withdraw",
					"outputs": [],
					"stateMutability": "nonpayable",
					"type": "function"
				},
				{
					"stateMutability": "payable",
					"type": "receive"
				}
			],
			"devdoc": {
				"kind": "dev",
				"methods": {},
				"version": 1
			},
			"evm": {
				"assembly": "    /* \"Flashloan/exchange/Exchange.sol\":186:2569  contract Exchange {... */\n  mstore(0x40, 0xc0)\n    /* \"Flashloan/exchange/Exchange.sol\":356:398  0xe9DcE89B076BA6107Bb64EF30678efec11939234 */\n  0xe9dce89b076ba6107bb64ef30678efec11939234\n    /* \"Flashloan/exchange/Exchange.sol\":307:398  address private immutable usdcAddress =... */\n  0xffffffffffffffffffffffffffffffffffffffff\n  and\n  0x80\n  swap1\n  0xffffffffffffffffffffffffffffffffffffffff\n  and\n  dup2\n  mstore\n  pop\n    /* \"Flashloan/exchange/Exchange.sol\":455:497  0xF14f9596430931E177469715c591513308244e8F */\n  0xf14f9596430931e177469715c591513308244e8f\n    /* \"Flashloan/exchange/Exchange.sol\":407:497  address private immutable daiAddress =... */\n  0xffffffffffffffffffffffffffffffffffffffff\n  and\n  0xa0\n  swap1\n  0xffffffffffffffffffffffffffffffffffffffff\n  and\n  dup2\n  mstore\n  pop\n    /* \"Flashloan/exchange/Exchange.sol\":608:610  90 */\n  0x5a\n    /* \"Flashloan/exchange/Exchange.sol\":589:610  uint256 dexARate = 90 */\n  0x03\n  sstore\n    /* \"Flashloan/exchange/Exchange.sol\":636:639  100 */\n  0x64\n    /* \"Flashloan/exchange/Exchange.sol\":617:639  uint256 dexBRate = 100 */\n  0x04\n  sstore\n    /* \"Flashloan/exchange/Exchange.sol\":858:990  constructor() {... */\n  callvalue\n  dup1\n  iszero\n  tag_1\n  jumpi\n  0x00\n  dup1\n  revert\ntag_1:\n  pop\n    /* \"Flashloan/exchange/Exchange.sol\":899:909  msg.sender */\n  caller\n    /* \"Flashloan/exchange/Exchange.sol\":883:888  owner */\n  0x00\n  dup1\n    /* \"Flashloan/exchange/Exchange.sol\":883:910  owner = payable(msg.sender) */\n  0x0100\n  exp\n  dup2\n  sload\n  dup2\n  0xffffffffffffffffffffffffffffffffffffffff\n  mul\n  not\n  and\n  swap1\n  dup4\n  0xffffffffffffffffffffffffffffffffffffffff\n  and\n  mul\n  or\n  swap1\n  sstore\n  pop\n    /* \"Flashloan/exchange/Exchange.sol\":934:944  daiAddress */\n  mload(0xa0)\n    /* \"Flashloan/exchange/Exchange.sol\":921:924  dai */\n  0x01\n  0x00\n    /* \"Flashloan/exchange/Exchange.sol\":921:945  dai = IERC20(daiAddress) */\n  0x0100\n  exp\n  dup2\n  sload\n  dup2\n  0xffffffffffffffffffffffffffffffffffffffff\n  mul\n  not\n  and\n  swap1\n  dup4\n  0xffffffffffffffffffffffffffffffffffffffff\n  and\n  mul\n  or\n  swap1\n  sstore\n  pop\n    /* \"Flashloan/exchange/Exchange.sol\":970:981  usdcAddress */\n  mload(0x80)\n    /* \"Flashloan/exchange/Exchange.sol\":956:960  usdc */\n  0x02\n  0x00\n    /* \"Flashloan/exchange/Exchange.sol\":956:982  usdc = IERC20(usdcAddress) */\n  0x0100\n  exp\n  dup2\n  sload\n  dup2\n  0xffffffffffffffffffffffffffffffffffffffff\n  mul\n  not\n  and\n  swap1\n  dup4\n  0xffffffffffffffffffffffffffffffffffffffff\n  and\n  mul\n  or\n  swap1\n  sstore\n  pop\n    /* \"Flashloan/exchange/Exchange.sol\":186:2569  contract Exchange {... */\n  mload(0x80)\n  mload(0xa0)\n  codecopy(0x00, dataOffset(sub_0), dataSize(sub_0))\n  0x00\n  assignImmutable(\"0x5ad0f966e4dd8863f27c0e6ee7d684c0c8f4319efed210fe15662a0d29bcd615\")\n  0x00\n  assignImmutable(\"0xcc193713febc75d3d9bd2f9ce113f403ff19633f15c8cdbcf79756ae23e77f9a\")\n  return(0x00, dataSize(sub_0))\nstop\n\nsub_0: assembly {\n        /* \"Flashloan/exchange/Exchange.sol\":186:2569  contract Exchange {... */\n      mstore(0x40, 0x80)\n      jumpi(tag_1, lt(calldatasize, 0x04))\n      shr(0xe0, calldataload(0x00))\n      dup1\n      0x8da5cb5b\n      gt\n      tag_12\n      jumpi\n      dup1\n      0x8da5cb5b\n      eq\n      tag_7\n      jumpi\n      dup1\n      0xa99c68c5\n      eq\n      tag_8\n      jumpi\n      dup1\n      0xef067342\n      eq\n      tag_9\n      jumpi\n      dup1\n      0xf688bcfb\n      eq\n      tag_10\n      jumpi\n      dup1\n      0xf8b2cb4f\n      eq\n      tag_11\n      jumpi\n      jump(tag_2)\n    tag_12:\n      dup1\n      0x05abf904\n      eq\n      tag_3\n      jumpi\n      dup1\n      0x15602991\n      eq\n      tag_4\n      jumpi\n      dup1\n      0x365833e1\n      eq\n      tag_5\n      jumpi\n      dup1\n      0x51cff8d9\n      eq\n      tag_6\n      jumpi\n      jump(tag_2)\n    tag_1:\n      jumpi(tag_2, calldatasize)\n      stop\n    tag_2:\n      0x00\n      dup1\n      revert\n        /* \"Flashloan/exchange/Exchange.sol\":1622:1809  function buyDAI() external {... */\n    tag_3:\n      callvalue\n      dup1\n      iszero\n      tag_15\n      jumpi\n      0x00\n      dup1\n      revert\n    tag_15:\n      pop\n      tag_16\n      tag_17\n      jump\t// in\n    tag_16:\n      stop\n        /* \"Flashloan/exchange/Exchange.sol\":1817:2007  function sellDAI() external {... */\n    tag_4:\n      callvalue\n      dup1\n      iszero\n      tag_18\n      jumpi\n      0x00\n      dup1\n      revert\n    tag_18:\n      pop\n      tag_19\n      tag_20\n      jump\t// in\n    tag_19:\n      stop\n        /* \"Flashloan/exchange/Exchange.sol\":1312:1614  function depositDAI(uint256 _amount) external {... */\n    tag_5:\n      callvalue\n      dup1\n      iszero\n      tag_21\n      jumpi\n      0x00\n      dup1\n      revert\n    tag_21:\n      pop\n      tag_22\n      0x04\n      dup1\n      calldatasize\n      sub\n      dup2\n      add\n      swap1\n      tag_23\n      swap2\n      swap1\n      tag_24\n      jump\t// in\n    tag_23:\n      tag_25\n      jump\t// in\n    tag_22:\n      stop\n        /* \"Flashloan/exchange/Exchange.sol\":2170:2354  function withdraw(address _tokenAddress) external onlyOwner {... */\n    tag_6:\n      callvalue\n      dup1\n      iszero\n      tag_26\n      jumpi\n      0x00\n      dup1\n      revert\n    tag_26:\n      pop\n      tag_27\n      0x04\n      dup1\n      calldatasize\n      sub\n      dup2\n      add\n      swap1\n      tag_28\n      swap2\n      swap1\n      tag_29\n      jump\t// in\n    tag_28:\n      tag_30\n      jump\t// in\n    tag_27:\n      stop\n        /* \"Flashloan/exchange/Exchange.sol\":211:239  address payable public owner */\n    tag_7:\n      callvalue\n      dup1\n      iszero\n      tag_31\n      jumpi\n      0x00\n      dup1\n      revert\n    tag_31:\n      pop\n      tag_32\n      tag_33\n      jump\t// in\n    tag_32:\n      mload(0x40)\n      tag_34\n      swap2\n      swap1\n      tag_35\n      jump\t// in\n    tag_34:\n      mload(0x40)\n      dup1\n      swap2\n      sub\n      swap1\n      return\n        /* \"Flashloan/exchange/Exchange.sol\":802:849  mapping(address => uint256) public usdcBalances */\n    tag_8:\n      callvalue\n      dup1\n      iszero\n      tag_36\n      jumpi\n      0x00\n      dup1\n      revert\n    tag_36:\n      pop\n      tag_37\n      0x04\n      dup1\n      calldatasize\n      sub\n      dup2\n      add\n      swap1\n      tag_38\n      swap2\n      swap1\n      tag_29\n      jump\t// in\n    tag_38:\n      tag_39\n      jump\t// in\n    tag_37:\n      mload(0x40)\n      tag_40\n      swap2\n      swap1\n      tag_41\n      jump\t// in\n    tag_40:\n      mload(0x40)\n      dup1\n      swap2\n      sub\n      swap1\n      return\n        /* \"Flashloan/exchange/Exchange.sol\":697:743  mapping(address => uint256) public daiBalances */\n    tag_9:\n      callvalue\n      dup1\n      iszero\n      tag_42\n      jumpi\n      0x00\n      dup1\n      revert\n    tag_42:\n      pop\n      tag_43\n      0x04\n      dup1\n      calldatasize\n      sub\n      dup2\n      add\n      swap1\n      tag_44\n      swap2\n      swap1\n      tag_29\n      jump\t// in\n    tag_44:\n      tag_45\n      jump\t// in\n    tag_43:\n      mload(0x40)\n      tag_46\n      swap2\n      swap1\n      tag_41\n      jump\t// in\n    tag_46:\n      mload(0x40)\n      dup1\n      swap2\n      sub\n      swap1\n      return\n        /* \"Flashloan/exchange/Exchange.sol\":998:1304  function depositUSDC(uint256 _amount) external {... */\n    tag_10:\n      callvalue\n      dup1\n      iszero\n      tag_47\n      jumpi\n      0x00\n      dup1\n      revert\n    tag_47:\n      pop\n      tag_48\n      0x04\n      dup1\n      calldatasize\n      sub\n      dup2\n      add\n      swap1\n      tag_49\n      swap2\n      swap1\n      tag_24\n      jump\t// in\n    tag_49:\n      tag_50\n      jump\t// in\n    tag_48:\n      stop\n        /* \"Flashloan/exchange/Exchange.sol\":2015:2162  function getBalance(address _tokenAddress) external view returns (uint256) {... */\n    tag_11:\n      callvalue\n      dup1\n      iszero\n      tag_51\n      jumpi\n      0x00\n      dup1\n      revert\n    tag_51:\n      pop\n      tag_52\n      0x04\n      dup1\n      calldatasize\n      sub\n      dup2\n      add\n      swap1\n      tag_53\n      swap2\n      swap1\n      tag_29\n      jump\t// in\n    tag_53:\n      tag_54\n      jump\t// in\n    tag_52:\n      mload(0x40)\n      tag_55\n      swap2\n      swap1\n      tag_41\n      jump\t// in\n    tag_55:\n      mload(0x40)\n      dup1\n      swap2\n      sub\n      swap1\n      return\n        /* \"Flashloan/exchange/Exchange.sol\":1622:1809  function buyDAI() external {... */\n    tag_17:\n        /* \"Flashloan/exchange/Exchange.sol\":1660:1680  uint256 daiToReceive */\n      0x00\n        /* \"Flashloan/exchange/Exchange.sol\":1745:1751  10**12 */\n      0xe8d4a51000\n        /* \"Flashloan/exchange/Exchange.sol\":1724:1727  100 */\n      0x64\n        /* \"Flashloan/exchange/Exchange.sol\":1712:1720  dexARate */\n      sload(0x03)\n        /* \"Flashloan/exchange/Exchange.sol\":1685:1697  usdcBalances */\n      0x06\n        /* \"Flashloan/exchange/Exchange.sol\":1685:1709  usdcBalances[msg.sender] */\n      0x00\n        /* \"Flashloan/exchange/Exchange.sol\":1698:1708  msg.sender */\n      caller\n        /* \"Flashloan/exchange/Exchange.sol\":1685:1709  usdcBalances[msg.sender] */\n      0xffffffffffffffffffffffffffffffffffffffff\n      and\n      0xffffffffffffffffffffffffffffffffffffffff\n      and\n      dup2\n      mstore\n      0x20\n      add\n      swap1\n      dup2\n      mstore\n      0x20\n      add\n      0x00\n      keccak256\n      sload\n        /* \"Flashloan/exchange/Exchange.sol\":1685:1720  usdcBalances[msg.sender] / dexARate */\n      tag_57\n      swap2\n      swap1\n      tag_58\n      jump\t// in\n    tag_57:\n        /* \"Flashloan/exchange/Exchange.sol\":1684:1727  (usdcBalances[msg.sender] / dexARate) * 100 */\n      tag_59\n      swap2\n      swap1\n      tag_60\n      jump\t// in\n    tag_59:\n        /* \"Flashloan/exchange/Exchange.sol\":1683:1752  ((usdcBalances[msg.sender] / dexARate) * 100) *... */\n      tag_61\n      swap2\n      swap1\n      tag_60\n      jump\t// in\n    tag_61:\n        /* \"Flashloan/exchange/Exchange.sol\":1660:1752  uint256 daiToReceive = ((usdcBalances[msg.sender] / dexARate) * 100) *... */\n      swap1\n      pop\n        /* \"Flashloan/exchange/Exchange.sol\":1763:1766  dai */\n      0x01\n      0x00\n      swap1\n      sload\n      swap1\n      0x0100\n      exp\n      swap1\n      div\n      0xffffffffffffffffffffffffffffffffffffffff\n      and\n        /* \"Flashloan/exchange/Exchange.sol\":1763:1775  dai.transfer */\n      0xffffffffffffffffffffffffffffffffffffffff\n      and\n      0xa9059cbb\n        /* \"Flashloan/exchange/Exchange.sol\":1776:1786  msg.sender */\n      caller\n        /* \"Flashloan/exchange/Exchange.sol\":1788:1800  daiToReceive */\n      dup4\n        /* \"Flashloan/exchange/Exchange.sol\":1763:1801  dai.transfer(msg.sender, daiToReceive) */\n      mload(0x40)\n      dup4\n      0xffffffff\n      and\n      0xe0\n      shl\n      dup2\n      mstore\n      0x04\n      add\n      tag_62\n      swap3\n      swap2\n      swap1\n      tag_63\n      jump\t// in\n    tag_62:\n      0x20\n      mload(0x40)\n      dup1\n      dup4\n      sub\n      dup2\n      0x00\n      dup8\n      gas\n      call\n      iszero\n      dup1\n      iszero\n      tag_65\n      jumpi\n      returndatasize\n      0x00\n      dup1\n      returndatacopy\n      revert(0x00, returndatasize)\n    tag_65:\n      pop\n      pop\n      pop\n      pop\n      mload(0x40)\n      returndatasize\n      not(0x1f)\n      0x1f\n      dup3\n      add\n      and\n      dup3\n      add\n      dup1\n      0x40\n      mstore\n      pop\n      dup2\n      add\n      swap1\n      tag_66\n      swap2\n      swap1\n      tag_67\n      jump\t// in\n    tag_66:\n      pop\n        /* \"Flashloan/exchange/Exchange.sol\":1649:1809  {... */\n      pop\n        /* \"Flashloan/exchange/Exchange.sol\":1622:1809  function buyDAI() external {... */\n      jump\t// out\n        /* \"Flashloan/exchange/Exchange.sol\":1817:2007  function sellDAI() external {... */\n    tag_20:\n        /* \"Flashloan/exchange/Exchange.sol\":1856:1877  uint256 usdcToReceive */\n      0x00\n        /* \"Flashloan/exchange/Exchange.sol\":1941:1947  10**12 */\n      0xe8d4a51000\n        /* \"Flashloan/exchange/Exchange.sol\":1920:1923  100 */\n      0x64\n        /* \"Flashloan/exchange/Exchange.sol\":1908:1916  dexBRate */\n      sload(0x04)\n        /* \"Flashloan/exchange/Exchange.sol\":1882:1893  daiBalances */\n      0x05\n        /* \"Flashloan/exchange/Exchange.sol\":1882:1905  daiBalances[msg.sender] */\n      0x00\n        /* \"Flashloan/exchange/Exchange.sol\":1894:1904  msg.sender */\n      caller\n        /* \"Flashloan/exchange/Exchange.sol\":1882:1905  daiBalances[msg.sender] */\n      0xffffffffffffffffffffffffffffffffffffffff\n      and\n      0xffffffffffffffffffffffffffffffffffffffff\n      and\n      dup2\n      mstore\n      0x20\n      add\n      swap1\n      dup2\n      mstore\n      0x20\n      add\n      0x00\n      keccak256\n      sload\n        /* \"Flashloan/exchange/Exchange.sol\":1882:1916  daiBalances[msg.sender] * dexBRate */\n      tag_69\n      swap2\n      swap1\n      tag_60\n      jump\t// in\n    tag_69:\n        /* \"Flashloan/exchange/Exchange.sol\":1881:1923  (daiBalances[msg.sender] * dexBRate) / 100 */\n      tag_70\n      swap2\n      swap1\n      tag_58\n      jump\t// in\n    tag_70:\n        /* \"Flashloan/exchange/Exchange.sol\":1880:1948  ((daiBalances[msg.sender] * dexBRate) / 100) /... */\n      tag_71\n      swap2\n      swap1\n      tag_58\n      jump\t// in\n    tag_71:\n        /* \"Flashloan/exchange/Exchange.sol\":1856:1948  uint256 usdcToReceive = ((daiBalances[msg.sender] * dexBRate) / 100) /... */\n      swap1\n      pop\n        /* \"Flashloan/exchange/Exchange.sol\":1959:1963  usdc */\n      0x02\n      0x00\n      swap1\n      sload\n      swap1\n      0x0100\n      exp\n      swap1\n      div\n      0xffffffffffffffffffffffffffffffffffffffff\n      and\n        /* \"Flashloan/exchange/Exchange.sol\":1959:1972  usdc.transfer */\n      0xffffffffffffffffffffffffffffffffffffffff\n      and\n      0xa9059cbb\n        /* \"Flashloan/exchange/Exchange.sol\":1973:1983  msg.sender */\n      caller\n        /* \"Flashloan/exchange/Exchange.sol\":1985:1998  usdcToReceive */\n      dup4\n        /* \"Flashloan/exchange/Exchange.sol\":1959:1999  usdc.transfer(msg.sender, usdcToReceive) */\n      mload(0x40)\n      dup4\n      0xffffffff\n      and\n      0xe0\n      shl\n      dup2\n      mstore\n      0x04\n      add\n      tag_72\n      swap3\n      swap2\n      swap1\n      tag_63\n      jump\t// in\n    tag_72:\n      0x20\n      mload(0x40)\n      dup1\n      dup4\n      sub\n      dup2\n      0x00\n      dup8\n      gas\n      call\n      iszero\n      dup1\n      iszero\n      tag_74\n      jumpi\n      returndatasize\n      0x00\n      dup1\n      returndatacopy\n      revert(0x00, returndatasize)\n    tag_74:\n      pop\n      pop\n      pop\n      pop\n      mload(0x40)\n      returndatasize\n      not(0x1f)\n      0x1f\n      dup3\n      add\n      and\n      dup3\n      add\n      dup1\n      0x40\n      mstore\n      pop\n      dup2\n      add\n      swap1\n      tag_75\n      swap2\n      swap1\n      tag_67\n      jump\t// in\n    tag_75:\n      pop\n        /* \"Flashloan/exchange/Exchange.sol\":1845:2007  {... */\n      pop\n        /* \"Flashloan/exchange/Exchange.sol\":1817:2007  function sellDAI() external {... */\n      jump\t// out\n        /* \"Flashloan/exchange/Exchange.sol\":1312:1614  function depositDAI(uint256 _amount) external {... */\n    tag_25:\n        /* \"Flashloan/exchange/Exchange.sol\":1396:1403  _amount */\n      dup1\n        /* \"Flashloan/exchange/Exchange.sol\":1369:1380  daiBalances */\n      0x05\n        /* \"Flashloan/exchange/Exchange.sol\":1369:1392  daiBalances[msg.sender] */\n      0x00\n        /* \"Flashloan/exchange/Exchange.sol\":1381:1391  msg.sender */\n      caller\n        /* \"Flashloan/exchange/Exchange.sol\":1369:1392  daiBalances[msg.sender] */\n      0xffffffffffffffffffffffffffffffffffffffff\n      and\n      0xffffffffffffffffffffffffffffffffffffffff\n      and\n      dup2\n      mstore\n      0x20\n      add\n      swap1\n      dup2\n      mstore\n      0x20\n      add\n      0x00\n      keccak256\n      0x00\n        /* \"Flashloan/exchange/Exchange.sol\":1369:1403  daiBalances[msg.sender] += _amount */\n      dup3\n      dup3\n      sload\n      tag_77\n      swap2\n      swap1\n      tag_78\n      jump\t// in\n    tag_77:\n      swap3\n      pop\n      pop\n      dup2\n      swap1\n      sstore\n      pop\n        /* \"Flashloan/exchange/Exchange.sol\":1414:1431  uint256 allowance */\n      0x00\n        /* \"Flashloan/exchange/Exchange.sol\":1434:1437  dai */\n      0x01\n      0x00\n      swap1\n      sload\n      swap1\n      0x0100\n      exp\n      swap1\n      div\n      0xffffffffffffffffffffffffffffffffffffffff\n      and\n        /* \"Flashloan/exchange/Exchange.sol\":1434:1447  dai.allowance */\n      0xffffffffffffffffffffffffffffffffffffffff\n      and\n      0xdd62ed3e\n        /* \"Flashloan/exchange/Exchange.sol\":1448:1458  msg.sender */\n      caller\n        /* \"Flashloan/exchange/Exchange.sol\":1468:1472  this */\n      address\n        /* \"Flashloan/exchange/Exchange.sol\":1434:1474  dai.allowance(msg.sender, address(this)) */\n      mload(0x40)\n      dup4\n      0xffffffff\n      and\n      0xe0\n      shl\n      dup2\n      mstore\n      0x04\n      add\n      tag_79\n      swap3\n      swap2\n      swap1\n      tag_80\n      jump\t// in\n    tag_79:\n      0x20\n      mload(0x40)\n      dup1\n      dup4\n      sub\n      dup2\n      dup7\n      gas\n      staticcall\n      iszero\n      dup1\n      iszero\n      tag_82\n      jumpi\n      returndatasize\n      0x00\n      dup1\n      returndatacopy\n      revert(0x00, returndatasize)\n    tag_82:\n      pop\n      pop\n      pop\n      pop\n      mload(0x40)\n      returndatasize\n      not(0x1f)\n      0x1f\n      dup3\n      add\n      and\n      dup3\n      add\n      dup1\n      0x40\n      mstore\n      pop\n      dup2\n      add\n      swap1\n      tag_83\n      swap2\n      swap1\n      tag_84\n      jump\t// in\n    tag_83:\n        /* \"Flashloan/exchange/Exchange.sol\":1414:1474  uint256 allowance = dai.allowance(msg.sender, address(this)) */\n      swap1\n      pop\n        /* \"Flashloan/exchange/Exchange.sol\":1506:1513  _amount */\n      dup2\n        /* \"Flashloan/exchange/Exchange.sol\":1493:1502  allowance */\n      dup2\n        /* \"Flashloan/exchange/Exchange.sol\":1493:1513  allowance >= _amount */\n      lt\n      iszero\n        /* \"Flashloan/exchange/Exchange.sol\":1485:1543  require(allowance >= _amount, \"Check the token allowance\") */\n      tag_85\n      jumpi\n      mload(0x40)\n      0x08c379a000000000000000000000000000000000000000000000000000000000\n      dup2\n      mstore\n      0x04\n      add\n      tag_86\n      swap1\n      tag_87\n      jump\t// in\n    tag_86:\n      mload(0x40)\n      dup1\n      swap2\n      sub\n      swap1\n      revert\n    tag_85:\n        /* \"Flashloan/exchange/Exchange.sol\":1554:1557  dai */\n      0x01\n      0x00\n      swap1\n      sload\n      swap1\n      0x0100\n      exp\n      swap1\n      div\n      0xffffffffffffffffffffffffffffffffffffffff\n      and\n        /* \"Flashloan/exchange/Exchange.sol\":1554:1570  dai.transferFrom */\n      0xffffffffffffffffffffffffffffffffffffffff\n      and\n      0x23b872dd\n        /* \"Flashloan/exchange/Exchange.sol\":1571:1581  msg.sender */\n      caller\n        /* \"Flashloan/exchange/Exchange.sol\":1591:1595  this */\n      address\n        /* \"Flashloan/exchange/Exchange.sol\":1598:1605  _amount */\n      dup6\n        /* \"Flashloan/exchange/Exchange.sol\":1554:1606  dai.transferFrom(msg.sender, address(this), _amount) */\n      mload(0x40)\n      dup5\n      0xffffffff\n      and\n      0xe0\n      shl\n      dup2\n      mstore\n      0x04\n      add\n      tag_88\n      swap4\n      swap3\n      swap2\n      swap1\n      tag_89\n      jump\t// in\n    tag_88:\n      0x20\n      mload(0x40)\n      dup1\n      dup4\n      sub\n      dup2\n      0x00\n      dup8\n      gas\n      call\n      iszero\n      dup1\n      iszero\n      tag_91\n      jumpi\n      returndatasize\n      0x00\n      dup1\n      returndatacopy\n      revert(0x00, returndatasize)\n    tag_91:\n      pop\n      pop\n      pop\n      pop\n      mload(0x40)\n      returndatasize\n      not(0x1f)\n      0x1f\n      dup3\n      add\n      and\n      dup3\n      add\n      dup1\n      0x40\n      mstore\n      pop\n      dup2\n      add\n      swap1\n      tag_92\n      swap2\n      swap1\n      tag_67\n      jump\t// in\n    tag_92:\n      pop\n        /* \"Flashloan/exchange/Exchange.sol\":1358:1614  {... */\n      pop\n        /* \"Flashloan/exchange/Exchange.sol\":1312:1614  function depositDAI(uint256 _amount) external {... */\n      pop\n      jump\t// out\n        /* \"Flashloan/exchange/Exchange.sol\":2170:2354  function withdraw(address _tokenAddress) external onlyOwner {... */\n    tag_30:\n        /* \"Flashloan/exchange/Exchange.sol\":2430:2435  owner */\n      0x00\n      dup1\n      sload\n      swap1\n      0x0100\n      exp\n      swap1\n      div\n      0xffffffffffffffffffffffffffffffffffffffff\n      and\n        /* \"Flashloan/exchange/Exchange.sol\":2416:2435  msg.sender == owner */\n      0xffffffffffffffffffffffffffffffffffffffff\n      and\n        /* \"Flashloan/exchange/Exchange.sol\":2416:2426  msg.sender */\n      caller\n        /* \"Flashloan/exchange/Exchange.sol\":2416:2435  msg.sender == owner */\n      0xffffffffffffffffffffffffffffffffffffffff\n      and\n      eq\n        /* \"Flashloan/exchange/Exchange.sol\":2394:2509  require(... */\n      tag_94\n      jumpi\n      mload(0x40)\n      0x08c379a000000000000000000000000000000000000000000000000000000000\n      dup2\n      mstore\n      0x04\n      add\n      tag_95\n      swap1\n      tag_96\n      jump\t// in\n    tag_95:\n      mload(0x40)\n      dup1\n      swap2\n      sub\n      swap1\n      revert\n    tag_94:\n        /* \"Flashloan/exchange/Exchange.sol\":2241:2253  IERC20 token */\n      0x00\n        /* \"Flashloan/exchange/Exchange.sol\":2263:2276  _tokenAddress */\n      dup2\n        /* \"Flashloan/exchange/Exchange.sol\":2241:2277  IERC20 token = IERC20(_tokenAddress) */\n      swap1\n      pop\n        /* \"Flashloan/exchange/Exchange.sol\":2288:2293  token */\n      dup1\n        /* \"Flashloan/exchange/Exchange.sol\":2288:2302  token.transfer */\n      0xffffffffffffffffffffffffffffffffffffffff\n      and\n      0xa9059cbb\n        /* \"Flashloan/exchange/Exchange.sol\":2303:2313  msg.sender */\n      caller\n        /* \"Flashloan/exchange/Exchange.sol\":2315:2320  token */\n      dup4\n        /* \"Flashloan/exchange/Exchange.sol\":2315:2330  token.balanceOf */\n      0xffffffffffffffffffffffffffffffffffffffff\n      and\n      0x70a08231\n        /* \"Flashloan/exchange/Exchange.sol\":2339:2343  this */\n      address\n        /* \"Flashloan/exchange/Exchange.sol\":2315:2345  token.balanceOf(address(this)) */\n      mload(0x40)\n      dup3\n      0xffffffff\n      and\n      0xe0\n      shl\n      dup2\n      mstore\n      0x04\n      add\n      tag_98\n      swap2\n      swap1\n      tag_99\n      jump\t// in\n    tag_98:\n      0x20\n      mload(0x40)\n      dup1\n      dup4\n      sub\n      dup2\n      dup7\n      gas\n      staticcall\n      iszero\n      dup1\n      iszero\n      tag_101\n      jumpi\n      returndatasize\n      0x00\n      dup1\n      returndatacopy\n      revert(0x00, returndatasize)\n    tag_101:\n      pop\n      pop\n      pop\n      pop\n      mload(0x40)\n      returndatasize\n      not(0x1f)\n      0x1f\n      dup3\n      add\n      and\n      dup3\n      add\n      dup1\n      0x40\n      mstore\n      pop\n      dup2\n      add\n      swap1\n      tag_102\n      swap2\n      swap1\n      tag_84\n      jump\t// in\n    tag_102:\n        /* \"Flashloan/exchange/Exchange.sol\":2288:2346  token.transfer(msg.sender, token.balanceOf(address(this))) */\n      mload(0x40)\n      dup4\n      0xffffffff\n      and\n      0xe0\n      shl\n      dup2\n      mstore\n      0x04\n      add\n      tag_103\n      swap3\n      swap2\n      swap1\n      tag_63\n      jump\t// in\n    tag_103:\n      0x20\n      mload(0x40)\n      dup1\n      dup4\n      sub\n      dup2\n      0x00\n      dup8\n      gas\n      call\n      iszero\n      dup1\n      iszero\n      tag_105\n      jumpi\n      returndatasize\n      0x00\n      dup1\n      returndatacopy\n      revert(0x00, returndatasize)\n    tag_105:\n      pop\n      pop\n      pop\n      pop\n      mload(0x40)\n      returndatasize\n      not(0x1f)\n      0x1f\n      dup3\n      add\n      and\n      dup3\n      add\n      dup1\n      0x40\n      mstore\n      pop\n      dup2\n      add\n      swap1\n      tag_106\n      swap2\n      swap1\n      tag_67\n      jump\t// in\n    tag_106:\n      pop\n        /* \"Flashloan/exchange/Exchange.sol\":2230:2354  {... */\n      pop\n        /* \"Flashloan/exchange/Exchange.sol\":2170:2354  function withdraw(address _tokenAddress) external onlyOwner {... */\n      pop\n      jump\t// out\n        /* \"Flashloan/exchange/Exchange.sol\":211:239  address payable public owner */\n    tag_33:\n      0x00\n      dup1\n      sload\n      swap1\n      0x0100\n      exp\n      swap1\n      div\n      0xffffffffffffffffffffffffffffffffffffffff\n      and\n      dup2\n      jump\t// out\n        /* \"Flashloan/exchange/Exchange.sol\":802:849  mapping(address => uint256) public usdcBalances */\n    tag_39:\n      mstore(0x20, 0x06)\n      dup1\n      0x00\n      mstore\n      keccak256(0x00, 0x40)\n      0x00\n      swap2\n      pop\n      swap1\n      pop\n      sload\n      dup2\n      jump\t// out\n        /* \"Flashloan/exchange/Exchange.sol\":697:743  mapping(address => uint256) public daiBalances */\n    tag_45:\n      mstore(0x20, 0x05)\n      dup1\n      0x00\n      mstore\n      keccak256(0x00, 0x40)\n      0x00\n      swap2\n      pop\n      swap1\n      pop\n      sload\n      dup2\n      jump\t// out\n        /* \"Flashloan/exchange/Exchange.sol\":998:1304  function depositUSDC(uint256 _amount) external {... */\n    tag_50:\n        /* \"Flashloan/exchange/Exchange.sol\":1084:1091  _amount */\n      dup1\n        /* \"Flashloan/exchange/Exchange.sol\":1056:1068  usdcBalances */\n      0x06\n        /* \"Flashloan/exchange/Exchange.sol\":1056:1080  usdcBalances[msg.sender] */\n      0x00\n        /* \"Flashloan/exchange/Exchange.sol\":1069:1079  msg.sender */\n      caller\n        /* \"Flashloan/exchange/Exchange.sol\":1056:1080  usdcBalances[msg.sender] */\n      0xffffffffffffffffffffffffffffffffffffffff\n      and\n      0xffffffffffffffffffffffffffffffffffffffff\n      and\n      dup2\n      mstore\n      0x20\n      add\n      swap1\n      dup2\n      mstore\n      0x20\n      add\n      0x00\n      keccak256\n      0x00\n        /* \"Flashloan/exchange/Exchange.sol\":1056:1091  usdcBalances[msg.sender] += _amount */\n      dup3\n      dup3\n      sload\n      tag_108\n      swap2\n      swap1\n      tag_78\n      jump\t// in\n    tag_108:\n      swap3\n      pop\n      pop\n      dup2\n      swap1\n      sstore\n      pop\n        /* \"Flashloan/exchange/Exchange.sol\":1102:1119  uint256 allowance */\n      0x00\n        /* \"Flashloan/exchange/Exchange.sol\":1122:1126  usdc */\n      0x02\n      0x00\n      swap1\n      sload\n      swap1\n      0x0100\n      exp\n      swap1\n      div\n      0xffffffffffffffffffffffffffffffffffffffff\n      and\n        /* \"Flashloan/exchange/Exchange.sol\":1122:1136  usdc.allowance */\n      0xffffffffffffffffffffffffffffffffffffffff\n      and\n      0xdd62ed3e\n        /* \"Flashloan/exchange/Exchange.sol\":1137:1147  msg.sender */\n      caller\n        /* \"Flashloan/exchange/Exchange.sol\":1157:1161  this */\n      address\n        /* \"Flashloan/exchange/Exchange.sol\":1122:1163  usdc.allowance(msg.sender, address(this)) */\n      mload(0x40)\n      dup4\n      0xffffffff\n      and\n      0xe0\n      shl\n      dup2\n      mstore\n      0x04\n      add\n      tag_109\n      swap3\n      swap2\n      swap1\n      tag_80\n      jump\t// in\n    tag_109:\n      0x20\n      mload(0x40)\n      dup1\n      dup4\n      sub\n      dup2\n      dup7\n      gas\n      staticcall\n      iszero\n      dup1\n      iszero\n      tag_111\n      jumpi\n      returndatasize\n      0x00\n      dup1\n      returndatacopy\n      revert(0x00, returndatasize)\n    tag_111:\n      pop\n      pop\n      pop\n      pop\n      mload(0x40)\n      returndatasize\n      not(0x1f)\n      0x1f\n      dup3\n      add\n      and\n      dup3\n      add\n      dup1\n      0x40\n      mstore\n      pop\n      dup2\n      add\n      swap1\n      tag_112\n      swap2\n      swap1\n      tag_84\n      jump\t// in\n    tag_112:\n        /* \"Flashloan/exchange/Exchange.sol\":1102:1163  uint256 allowance = usdc.allowance(msg.sender, address(this)) */\n      swap1\n      pop\n        /* \"Flashloan/exchange/Exchange.sol\":1195:1202  _amount */\n      dup2\n        /* \"Flashloan/exchange/Exchange.sol\":1182:1191  allowance */\n      dup2\n        /* \"Flashloan/exchange/Exchange.sol\":1182:1202  allowance >= _amount */\n      lt\n      iszero\n        /* \"Flashloan/exchange/Exchange.sol\":1174:1232  require(allowance >= _amount, \"Check the token allowance\") */\n      tag_113\n      jumpi\n      mload(0x40)\n      0x08c379a000000000000000000000000000000000000000000000000000000000\n      dup2\n      mstore\n      0x04\n      add\n      tag_114\n      swap1\n      tag_87\n      jump\t// in\n    tag_114:\n      mload(0x40)\n      dup1\n      swap2\n      sub\n      swap1\n      revert\n    tag_113:\n        /* \"Flashloan/exchange/Exchange.sol\":1243:1247  usdc */\n      0x02\n      0x00\n      swap1\n      sload\n      swap1\n      0x0100\n      exp\n      swap1\n      div\n      0xffffffffffffffffffffffffffffffffffffffff\n      and\n        /* \"Flashloan/exchange/Exchange.sol\":1243:1260  usdc.transferFrom */\n      0xffffffffffffffffffffffffffffffffffffffff\n      and\n      0x23b872dd\n        /* \"Flashloan/exchange/Exchange.sol\":1261:1271  msg.sender */\n      caller\n        /* \"Flashloan/exchange/Exchange.sol\":1281:1285  this */\n      address\n        /* \"Flashloan/exchange/Exchange.sol\":1288:1295  _amount */\n      dup6\n        /* \"Flashloan/exchange/Exchange.sol\":1243:1296  usdc.transferFrom(msg.sender, address(this), _amount) */\n      mload(0x40)\n      dup5\n      0xffffffff\n      and\n      0xe0\n      shl\n      dup2\n      mstore\n      0x04\n      add\n      tag_115\n      swap4\n      swap3\n      swap2\n      swap1\n      tag_89\n      jump\t// in\n    tag_115:\n      0x20\n      mload(0x40)\n      dup1\n      dup4\n      sub\n      dup2\n      0x00\n      dup8\n      gas\n      call\n      iszero\n      dup1\n      iszero\n      tag_117\n      jumpi\n      returndatasize\n      0x00\n      dup1\n      returndatacopy\n      revert(0x00, returndatasize)\n    tag_117:\n      pop\n      pop\n      pop\n      pop\n      mload(0x40)\n      returndatasize\n      not(0x1f)\n      0x1f\n      dup3\n      add\n      and\n      dup3\n      add\n      dup1\n      0x40\n      mstore\n      pop\n      dup2\n      add\n      swap1\n      tag_118\n      swap2\n      swap1\n      tag_67\n      jump\t// in\n    tag_118:\n      pop\n        /* \"Flashloan/exchange/Exchange.sol\":1045:1304  {... */\n      pop\n        /* \"Flashloan/exchange/Exchange.sol\":998:1304  function depositUSDC(uint256 _amount) external {... */\n      pop\n      jump\t// out\n        /* \"Flashloan/exchange/Exchange.sol\":2015:2162  function getBalance(address _tokenAddress) external view returns (uint256) {... */\n    tag_54:\n        /* \"Flashloan/exchange/Exchange.sol\":2081:2088  uint256 */\n      0x00\n        /* \"Flashloan/exchange/Exchange.sol\":2115:2128  _tokenAddress */\n      dup2\n        /* \"Flashloan/exchange/Exchange.sol\":2108:2139  IERC20(_tokenAddress).balanceOf */\n      0xffffffffffffffffffffffffffffffffffffffff\n      and\n      0x70a08231\n        /* \"Flashloan/exchange/Exchange.sol\":2148:2152  this */\n      address\n        /* \"Flashloan/exchange/Exchange.sol\":2108:2154  IERC20(_tokenAddress).balanceOf(address(this)) */\n      mload(0x40)\n      dup3\n      0xffffffff\n      and\n      0xe0\n      shl\n      dup2\n      mstore\n      0x04\n      add\n      tag_120\n      swap2\n      swap1\n      tag_99\n      jump\t// in\n    tag_120:\n      0x20\n      mload(0x40)\n      dup1\n      dup4\n      sub\n      dup2\n      dup7\n      gas\n      staticcall\n      iszero\n      dup1\n      iszero\n      tag_122\n      jumpi\n      returndatasize\n      0x00\n      dup1\n      returndatacopy\n      revert(0x00, returndatasize)\n    tag_122:\n      pop\n      pop\n      pop\n      pop\n      mload(0x40)\n      returndatasize\n      not(0x1f)\n      0x1f\n      dup3\n      add\n      and\n      dup3\n      add\n      dup1\n      0x40\n      mstore\n      pop\n      dup2\n      add\n      swap1\n      tag_123\n      swap2\n      swap1\n      tag_84\n      jump\t// in\n    tag_123:\n        /* \"Flashloan/exchange/Exchange.sol\":2101:2154  return IERC20(_tokenAddress).balanceOf(address(this)) */\n      swap1\n      pop\n        /* \"Flashloan/exchange/Exchange.sol\":2015:2162  function getBalance(address _tokenAddress) external view returns (uint256) {... */\n      swap2\n      swap1\n      pop\n      jump\t// out\n        /* \"#utility.yul\":88:205   */\n    tag_125:\n        /* \"#utility.yul\":197:198   */\n      0x00\n        /* \"#utility.yul\":194:195   */\n      dup1\n        /* \"#utility.yul\":187:199   */\n      revert\n        /* \"#utility.yul\":334:411   */\n    tag_127:\n        /* \"#utility.yul\":371:378   */\n      0x00\n        /* \"#utility.yul\":400:405   */\n      dup2\n        /* \"#utility.yul\":389:405   */\n      swap1\n      pop\n        /* \"#utility.yul\":334:411   */\n      swap2\n      swap1\n      pop\n      jump\t// out\n        /* \"#utility.yul\":417:539   */\n    tag_128:\n        /* \"#utility.yul\":490:514   */\n      tag_155\n        /* \"#utility.yul\":508:513   */\n      dup2\n        /* \"#utility.yul\":490:514   */\n      tag_127\n      jump\t// in\n    tag_155:\n        /* \"#utility.yul\":483:488   */\n      dup2\n        /* \"#utility.yul\":480:515   */\n      eq\n        /* \"#utility.yul\":470:533   */\n      tag_156\n      jumpi\n        /* \"#utility.yul\":529:530   */\n      0x00\n        /* \"#utility.yul\":526:527   */\n      dup1\n        /* \"#utility.yul\":519:531   */\n      revert\n        /* \"#utility.yul\":470:533   */\n    tag_156:\n        /* \"#utility.yul\":417:539   */\n      pop\n      jump\t// out\n        /* \"#utility.yul\":545:684   */\n    tag_129:\n        /* \"#utility.yul\":591:596   */\n      0x00\n        /* \"#utility.yul\":629:635   */\n      dup2\n        /* \"#utility.yul\":616:636   */\n      calldataload\n        /* \"#utility.yul\":607:636   */\n      swap1\n      pop\n        /* \"#utility.yul\":645:678   */\n      tag_158\n        /* \"#utility.yul\":672:677   */\n      dup2\n        /* \"#utility.yul\":645:678   */\n      tag_128\n      jump\t// in\n    tag_158:\n        /* \"#utility.yul\":545:684   */\n      swap3\n      swap2\n      pop\n      pop\n      jump\t// out\n        /* \"#utility.yul\":690:1019   */\n    tag_24:\n        /* \"#utility.yul\":749:755   */\n      0x00\n        /* \"#utility.yul\":798:800   */\n      0x20\n        /* \"#utility.yul\":786:795   */\n      dup3\n        /* \"#utility.yul\":777:784   */\n      dup5\n        /* \"#utility.yul\":773:796   */\n      sub\n        /* \"#utility.yul\":769:801   */\n      slt\n        /* \"#utility.yul\":766:885   */\n      iszero\n      tag_160\n      jumpi\n        /* \"#utility.yul\":804:883   */\n      tag_161\n      tag_125\n      jump\t// in\n    tag_161:\n        /* \"#utility.yul\":766:885   */\n    tag_160:\n        /* \"#utility.yul\":924:925   */\n      0x00\n        /* \"#utility.yul\":949:1002   */\n      tag_162\n        /* \"#utility.yul\":994:1001   */\n      dup5\n        /* \"#utility.yul\":985:991   */\n      dup3\n        /* \"#utility.yul\":974:983   */\n      dup6\n        /* \"#utility.yul\":970:992   */\n      add\n        /* \"#utility.yul\":949:1002   */\n      tag_129\n      jump\t// in\n    tag_162:\n        /* \"#utility.yul\":939:1002   */\n      swap2\n      pop\n        /* \"#utility.yul\":895:1012   */\n      pop\n        /* \"#utility.yul\":690:1019   */\n      swap3\n      swap2\n      pop\n      pop\n      jump\t// out\n        /* \"#utility.yul\":1025:1151   */\n    tag_130:\n        /* \"#utility.yul\":1062:1069   */\n      0x00\n        /* \"#utility.yul\":1102:1144   */\n      0xffffffffffffffffffffffffffffffffffffffff\n        /* \"#utility.yul\":1095:1100   */\n      dup3\n        /* \"#utility.yul\":1091:1145   */\n      and\n        /* \"#utility.yul\":1080:1145   */\n      swap1\n      pop\n        /* \"#utility.yul\":1025:1151   */\n      swap2\n      swap1\n      pop\n      jump\t// out\n        /* \"#utility.yul\":1157:1253   */\n    tag_131:\n        /* \"#utility.yul\":1194:1201   */\n      0x00\n        /* \"#utility.yul\":1223:1247   */\n      tag_165\n        /* \"#utility.yul\":1241:1246   */\n      dup3\n        /* \"#utility.yul\":1223:1247   */\n      tag_130\n      jump\t// in\n    tag_165:\n        /* \"#utility.yul\":1212:1247   */\n      swap1\n      pop\n        /* \"#utility.yul\":1157:1253   */\n      swap2\n      swap1\n      pop\n      jump\t// out\n        /* \"#utility.yul\":1259:1381   */\n    tag_132:\n        /* \"#utility.yul\":1332:1356   */\n      tag_167\n        /* \"#utility.yul\":1350:1355   */\n      dup2\n        /* \"#utility.yul\":1332:1356   */\n      tag_131\n      jump\t// in\n    tag_167:\n        /* \"#utility.yul\":1325:1330   */\n      dup2\n        /* \"#utility.yul\":1322:1357   */\n      eq\n        /* \"#utility.yul\":1312:1375   */\n      tag_168\n      jumpi\n        /* \"#utility.yul\":1371:1372   */\n      0x00\n        /* \"#utility.yul\":1368:1369   */\n      dup1\n        /* \"#utility.yul\":1361:1373   */\n      revert\n        /* \"#utility.yul\":1312:1375   */\n    tag_168:\n        /* \"#utility.yul\":1259:1381   */\n      pop\n      jump\t// out\n        /* \"#utility.yul\":1387:1526   */\n    tag_133:\n        /* \"#utility.yul\":1433:1438   */\n      0x00\n        /* \"#utility.yul\":1471:1477   */\n      dup2\n        /* \"#utility.yul\":1458:1478   */\n      calldataload\n        /* \"#utility.yul\":1449:1478   */\n      swap1\n      pop\n        /* \"#utility.yul\":1487:1520   */\n      tag_170\n        /* \"#utility.yul\":1514:1519   */\n      dup2\n        /* \"#utility.yul\":1487:1520   */\n      tag_132\n      jump\t// in\n    tag_170:\n        /* \"#utility.yul\":1387:1526   */\n      swap3\n      swap2\n      pop\n      pop\n      jump\t// out\n        /* \"#utility.yul\":1532:1861   */\n    tag_29:\n        /* \"#utility.yul\":1591:1597   */\n      0x00\n        /* \"#utility.yul\":1640:1642   */\n      0x20\n        /* \"#utility.yul\":1628:1637   */\n      dup3\n        /* \"#utility.yul\":1619:1626   */\n      dup5\n        /* \"#utility.yul\":1615:1638   */\n      sub\n        /* \"#utility.yul\":1611:1643   */\n      slt\n        /* \"#utility.yul\":1608:1727   */\n      iszero\n      tag_172\n      jumpi\n        /* \"#utility.yul\":1646:1725   */\n      tag_173\n      tag_125\n      jump\t// in\n    tag_173:\n        /* \"#utility.yul\":1608:1727   */\n    tag_172:\n        /* \"#utility.yul\":1766:1767   */\n      0x00\n        /* \"#utility.yul\":1791:1844   */\n      tag_174\n        /* \"#utility.yul\":1836:1843   */\n      dup5\n        /* \"#utility.yul\":1827:1833   */\n      dup3\n        /* \"#utility.yul\":1816:1825   */\n      dup6\n        /* \"#utility.yul\":1812:1834   */\n      add\n        /* \"#utility.yul\":1791:1844   */\n      tag_133\n      jump\t// in\n    tag_174:\n        /* \"#utility.yul\":1781:1844   */\n      swap2\n      pop\n        /* \"#utility.yul\":1737:1854   */\n      pop\n        /* \"#utility.yul\":1532:1861   */\n      swap3\n      swap2\n      pop\n      pop\n      jump\t// out\n        /* \"#utility.yul\":1867:1971   */\n    tag_134:\n        /* \"#utility.yul\":1912:1919   */\n      0x00\n        /* \"#utility.yul\":1941:1965   */\n      tag_176\n        /* \"#utility.yul\":1959:1964   */\n      dup3\n        /* \"#utility.yul\":1941:1965   */\n      tag_130\n      jump\t// in\n    tag_176:\n        /* \"#utility.yul\":1930:1965   */\n      swap1\n      pop\n        /* \"#utility.yul\":1867:1971   */\n      swap2\n      swap1\n      pop\n      jump\t// out\n        /* \"#utility.yul\":1977:2119   */\n    tag_135:\n        /* \"#utility.yul\":2080:2112   */\n      tag_178\n        /* \"#utility.yul\":2106:2111   */\n      dup2\n        /* \"#utility.yul\":2080:2112   */\n      tag_134\n      jump\t// in\n    tag_178:\n        /* \"#utility.yul\":2075:2078   */\n      dup3\n        /* \"#utility.yul\":2068:2113   */\n      mstore\n        /* \"#utility.yul\":1977:2119   */\n      pop\n      pop\n      jump\t// out\n        /* \"#utility.yul\":2125:2379   */\n    tag_35:\n        /* \"#utility.yul\":2234:2238   */\n      0x00\n        /* \"#utility.yul\":2272:2274   */\n      0x20\n        /* \"#utility.yul\":2261:2270   */\n      dup3\n        /* \"#utility.yul\":2257:2275   */\n      add\n        /* \"#utility.yul\":2249:2275   */\n      swap1\n      pop\n        /* \"#utility.yul\":2285:2372   */\n      tag_180\n        /* \"#utility.yul\":2369:2370   */\n      0x00\n        /* \"#utility.yul\":2358:2367   */\n      dup4\n        /* \"#utility.yul\":2354:2371   */\n      add\n        /* \"#utility.yul\":2345:2351   */\n      dup5\n        /* \"#utility.yul\":2285:2372   */\n      tag_135\n      jump\t// in\n    tag_180:\n        /* \"#utility.yul\":2125:2379   */\n      swap3\n      swap2\n      pop\n      pop\n      jump\t// out\n        /* \"#utility.yul\":2385:2503   */\n    tag_136:\n        /* \"#utility.yul\":2472:2496   */\n      tag_182\n        /* \"#utility.yul\":2490:2495   */\n      dup2\n        /* \"#utility.yul\":2472:2496   */\n      tag_127\n      jump\t// in\n    tag_182:\n        /* \"#utility.yul\":2467:2470   */\n      dup3\n        /* \"#utility.yul\":2460:2497   */\n      mstore\n        /* \"#utility.yul\":2385:2503   */\n      pop\n      pop\n      jump\t// out\n        /* \"#utility.yul\":2509:2731   */\n    tag_41:\n        /* \"#utility.yul\":2602:2606   */\n      0x00\n        /* \"#utility.yul\":2640:2642   */\n      0x20\n        /* \"#utility.yul\":2629:2638   */\n      dup3\n        /* \"#utility.yul\":2625:2643   */\n      add\n        /* \"#utility.yul\":2617:2643   */\n      swap1\n      pop\n        /* \"#utility.yul\":2653:2724   */\n      tag_184\n        /* \"#utility.yul\":2721:2722   */\n      0x00\n        /* \"#utility.yul\":2710:2719   */\n      dup4\n        /* \"#utility.yul\":2706:2723   */\n      add\n        /* \"#utility.yul\":2697:2703   */\n      dup5\n        /* \"#utility.yul\":2653:2724   */\n      tag_136\n      jump\t// in\n    tag_184:\n        /* \"#utility.yul\":2509:2731   */\n      swap3\n      swap2\n      pop\n      pop\n      jump\t// out\n        /* \"#utility.yul\":2737:2917   */\n    tag_137:\n        /* \"#utility.yul\":2785:2862   */\n      0x4e487b7100000000000000000000000000000000000000000000000000000000\n        /* \"#utility.yul\":2782:2783   */\n      0x00\n        /* \"#utility.yul\":2775:2863   */\n      mstore\n        /* \"#utility.yul\":2882:2886   */\n      0x12\n        /* \"#utility.yul\":2879:2880   */\n      0x04\n        /* \"#utility.yul\":2872:2887   */\n      mstore\n        /* \"#utility.yul\":2906:2910   */\n      0x24\n        /* \"#utility.yul\":2903:2904   */\n      0x00\n        /* \"#utility.yul\":2896:2911   */\n      revert\n        /* \"#utility.yul\":2923:3103   */\n    tag_138:\n        /* \"#utility.yul\":2971:3048   */\n      0x4e487b7100000000000000000000000000000000000000000000000000000000\n        /* \"#utility.yul\":2968:2969   */\n      0x00\n        /* \"#utility.yul\":2961:3049   */\n      mstore\n        /* \"#utility.yul\":3068:3072   */\n      0x11\n        /* \"#utility.yul\":3065:3066   */\n      0x04\n        /* \"#utility.yul\":3058:3073   */\n      mstore\n        /* \"#utility.yul\":3092:3096   */\n      0x24\n        /* \"#utility.yul\":3089:3090   */\n      0x00\n        /* \"#utility.yul\":3082:3097   */\n      revert\n        /* \"#utility.yul\":3109:3294   */\n    tag_58:\n        /* \"#utility.yul\":3149:3150   */\n      0x00\n        /* \"#utility.yul\":3166:3186   */\n      tag_188\n        /* \"#utility.yul\":3184:3185   */\n      dup3\n        /* \"#utility.yul\":3166:3186   */\n      tag_127\n      jump\t// in\n    tag_188:\n        /* \"#utility.yul\":3161:3186   */\n      swap2\n      pop\n        /* \"#utility.yul\":3200:3220   */\n      tag_189\n        /* \"#utility.yul\":3218:3219   */\n      dup4\n        /* \"#utility.yul\":3200:3220   */\n      tag_127\n      jump\t// in\n    tag_189:\n        /* \"#utility.yul\":3195:3220   */\n      swap3\n      pop\n        /* \"#utility.yul\":3239:3240   */\n      dup3\n        /* \"#utility.yul\":3229:3264   */\n      tag_190\n      jumpi\n        /* \"#utility.yul\":3244:3262   */\n      tag_191\n      tag_137\n      jump\t// in\n    tag_191:\n        /* \"#utility.yul\":3229:3264   */\n    tag_190:\n        /* \"#utility.yul\":3286:3287   */\n      dup3\n        /* \"#utility.yul\":3283:3284   */\n      dup3\n        /* \"#utility.yul\":3279:3288   */\n      div\n        /* \"#utility.yul\":3274:3288   */\n      swap1\n      pop\n        /* \"#utility.yul\":3109:3294   */\n      swap3\n      swap2\n      pop\n      pop\n      jump\t// out\n        /* \"#utility.yul\":3300:3648   */\n    tag_60:\n        /* \"#utility.yul\":3340:3347   */\n      0x00\n        /* \"#utility.yul\":3363:3383   */\n      tag_193\n        /* \"#utility.yul\":3381:3382   */\n      dup3\n        /* \"#utility.yul\":3363:3383   */\n      tag_127\n      jump\t// in\n    tag_193:\n        /* \"#utility.yul\":3358:3383   */\n      swap2\n      pop\n        /* \"#utility.yul\":3397:3417   */\n      tag_194\n        /* \"#utility.yul\":3415:3416   */\n      dup4\n        /* \"#utility.yul\":3397:3417   */\n      tag_127\n      jump\t// in\n    tag_194:\n        /* \"#utility.yul\":3392:3417   */\n      swap3\n      pop\n        /* \"#utility.yul\":3585:3586   */\n      dup2\n        /* \"#utility.yul\":3517:3583   */\n      0xffffffffffffffffffffffffffffffffffffffffffffffffffffffffffffffff\n        /* \"#utility.yul\":3513:3587   */\n      div\n        /* \"#utility.yul\":3510:3511   */\n      dup4\n        /* \"#utility.yul\":3507:3588   */\n      gt\n        /* \"#utility.yul\":3502:3503   */\n      dup3\n        /* \"#utility.yul\":3495:3504   */\n      iszero\n        /* \"#utility.yul\":3488:3505   */\n      iszero\n        /* \"#utility.yul\":3484:3589   */\n      and\n        /* \"#utility.yul\":3481:3612   */\n      iszero\n      tag_195\n      jumpi\n        /* \"#utility.yul\":3592:3610   */\n      tag_196\n      tag_138\n      jump\t// in\n    tag_196:\n        /* \"#utility.yul\":3481:3612   */\n    tag_195:\n        /* \"#utility.yul\":3640:3641   */\n      dup3\n        /* \"#utility.yul\":3637:3638   */\n      dup3\n        /* \"#utility.yul\":3633:3642   */\n      mul\n        /* \"#utility.yul\":3622:3642   */\n      swap1\n      pop\n        /* \"#utility.yul\":3300:3648   */\n      swap3\n      swap2\n      pop\n      pop\n      jump\t// out\n        /* \"#utility.yul\":3654:3772   */\n    tag_139:\n        /* \"#utility.yul\":3741:3765   */\n      tag_198\n        /* \"#utility.yul\":3759:3764   */\n      dup2\n        /* \"#utility.yul\":3741:3765   */\n      tag_131\n      jump\t// in\n    tag_198:\n        /* \"#utility.yul\":3736:3739   */\n      dup3\n        /* \"#utility.yul\":3729:3766   */\n      mstore\n        /* \"#utility.yul\":3654:3772   */\n      pop\n      pop\n      jump\t// out\n        /* \"#utility.yul\":3778:4110   */\n    tag_63:\n        /* \"#utility.yul\":3899:3903   */\n      0x00\n        /* \"#utility.yul\":3937:3939   */\n      0x40\n        /* \"#utility.yul\":3926:3935   */\n      dup3\n        /* \"#utility.yul\":3922:3940   */\n      add\n        /* \"#utility.yul\":3914:3940   */\n      swap1\n      pop\n        /* \"#utility.yul\":3950:4021   */\n      tag_200\n        /* \"#utility.yul\":4018:4019   */\n      0x00\n        /* \"#utility.yul\":4007:4016   */\n      dup4\n        /* \"#utility.yul\":4003:4020   */\n      add\n        /* \"#utility.yul\":3994:4000   */\n      dup6\n        /* \"#utility.yul\":3950:4021   */\n      tag_139\n      jump\t// in\n    tag_200:\n        /* \"#utility.yul\":4031:4103   */\n      tag_201\n        /* \"#utility.yul\":4099:4101   */\n      0x20\n        /* \"#utility.yul\":4088:4097   */\n      dup4\n        /* \"#utility.yul\":4084:4102   */\n      add\n        /* \"#utility.yul\":4075:4081   */\n      dup5\n        /* \"#utility.yul\":4031:4103   */\n      tag_136\n      jump\t// in\n    tag_201:\n        /* \"#utility.yul\":3778:4110   */\n      swap4\n      swap3\n      pop\n      pop\n      pop\n      jump\t// out\n        /* \"#utility.yul\":4116:4206   */\n    tag_140:\n        /* \"#utility.yul\":4150:4157   */\n      0x00\n        /* \"#utility.yul\":4193:4198   */\n      dup2\n        /* \"#utility.yul\":4186:4199   */\n      iszero\n        /* \"#utility.yul\":4179:4200   */\n      iszero\n        /* \"#utility.yul\":4168:4200   */\n      swap1\n      pop\n        /* \"#utility.yul\":4116:4206   */\n      swap2\n      swap1\n      pop\n      jump\t// out\n        /* \"#utility.yul\":4212:4328   */\n    tag_141:\n        /* \"#utility.yul\":4282:4303   */\n      tag_204\n        /* \"#utility.yul\":4297:4302   */\n      dup2\n        /* \"#utility.yul\":4282:4303   */\n      tag_140\n      jump\t// in\n    tag_204:\n        /* \"#utility.yul\":4275:4280   */\n      dup2\n        /* \"#utility.yul\":4272:4304   */\n      eq\n        /* \"#utility.yul\":4262:4322   */\n      tag_205\n      jumpi\n        /* \"#utility.yul\":4318:4319   */\n      0x00\n        /* \"#utility.yul\":4315:4316   */\n      dup1\n        /* \"#utility.yul\":4308:4320   */\n      revert\n        /* \"#utility.yul\":4262:4322   */\n    tag_205:\n        /* \"#utility.yul\":4212:4328   */\n      pop\n      jump\t// out\n        /* \"#utility.yul\":4334:4471   */\n    tag_142:\n        /* \"#utility.yul\":4388:4393   */\n      0x00\n        /* \"#utility.yul\":4419:4425   */\n      dup2\n        /* \"#utility.yul\":4413:4426   */\n      mload\n        /* \"#utility.yul\":4404:4426   */\n      swap1\n      pop\n        /* \"#utility.yul\":4435:4465   */\n      tag_207\n        /* \"#utility.yul\":4459:4464   */\n      dup2\n        /* \"#utility.yul\":4435:4465   */\n      tag_141\n      jump\t// in\n    tag_207:\n        /* \"#utility.yul\":4334:4471   */\n      swap3\n      swap2\n      pop\n      pop\n      jump\t// out\n        /* \"#utility.yul\":4477:4822   */\n    tag_67:\n        /* \"#utility.yul\":4544:4550   */\n      0x00\n        /* \"#utility.yul\":4593:4595   */\n      0x20\n        /* \"#utility.yul\":4581:4590   */\n      dup3\n        /* \"#utility.yul\":4572:4579   */\n      dup5\n        /* \"#utility.yul\":4568:4591   */\n      sub\n        /* \"#utility.yul\":4564:4596   */\n      slt\n        /* \"#utility.yul\":4561:4680   */\n      iszero\n      tag_209\n      jumpi\n        /* \"#utility.yul\":4599:4678   */\n      tag_210\n      tag_125\n      jump\t// in\n    tag_210:\n        /* \"#utility.yul\":4561:4680   */\n    tag_209:\n        /* \"#utility.yul\":4719:4720   */\n      0x00\n        /* \"#utility.yul\":4744:4805   */\n      tag_211\n        /* \"#utility.yul\":4797:4804   */\n      dup5\n        /* \"#utility.yul\":4788:4794   */\n      dup3\n        /* \"#utility.yul\":4777:4786   */\n      dup6\n        /* \"#utility.yul\":4773:4795   */\n      add\n        /* \"#utility.yul\":4744:4805   */\n      tag_142\n      jump\t// in\n    tag_211:\n        /* \"#utility.yul\":4734:4805   */\n      swap2\n      pop\n        /* \"#utility.yul\":4690:4815   */\n      pop\n        /* \"#utility.yul\":4477:4822   */\n      swap3\n      swap2\n      pop\n      pop\n      jump\t// out\n        /* \"#utility.yul\":4828:5133   */\n    tag_78:\n        /* \"#utility.yul\":4868:4871   */\n      0x00\n        /* \"#utility.yul\":4887:4907   */\n      tag_213\n        /* \"#utility.yul\":4905:4906   */\n      dup3\n        /* \"#utility.yul\":4887:4907   */\n      tag_127\n      jump\t// in\n    tag_213:\n        /* \"#utility.yul\":4882:4907   */\n      swap2\n      pop\n        /* \"#utility.yul\":4921:4941   */\n      tag_214\n        /* \"#utility.yul\":4939:4940   */\n      dup4\n        /* \"#utility.yul\":4921:4941   */\n      tag_127\n      jump\t// in\n    tag_214:\n        /* \"#utility.yul\":4916:4941   */\n      swap3\n      pop\n        /* \"#utility.yul\":5075:5076   */\n      dup3\n        /* \"#utility.yul\":5007:5073   */\n      0xffffffffffffffffffffffffffffffffffffffffffffffffffffffffffffffff\n        /* \"#utility.yul\":5003:5077   */\n      sub\n        /* \"#utility.yul\":5000:5001   */\n      dup3\n        /* \"#utility.yul\":4997:5078   */\n      gt\n        /* \"#utility.yul\":4994:5101   */\n      iszero\n      tag_215\n      jumpi\n        /* \"#utility.yul\":5081:5099   */\n      tag_216\n      tag_138\n      jump\t// in\n    tag_216:\n        /* \"#utility.yul\":4994:5101   */\n    tag_215:\n        /* \"#utility.yul\":5125:5126   */\n      dup3\n        /* \"#utility.yul\":5122:5123   */\n      dup3\n        /* \"#utility.yul\":5118:5127   */\n      add\n        /* \"#utility.yul\":5111:5127   */\n      swap1\n      pop\n        /* \"#utility.yul\":4828:5133   */\n      swap3\n      swap2\n      pop\n      pop\n      jump\t// out\n        /* \"#utility.yul\":5139:5471   */\n    tag_80:\n        /* \"#utility.yul\":5260:5264   */\n      0x00\n        /* \"#utility.yul\":5298:5300   */\n      0x40\n        /* \"#utility.yul\":5287:5296   */\n      dup3\n        /* \"#utility.yul\":5283:5301   */\n      add\n        /* \"#utility.yul\":5275:5301   */\n      swap1\n      pop\n        /* \"#utility.yul\":5311:5382   */\n      tag_218\n        /* \"#utility.yul\":5379:5380   */\n      0x00\n        /* \"#utility.yul\":5368:5377   */\n      dup4\n        /* \"#utility.yul\":5364:5381   */\n      add\n        /* \"#utility.yul\":5355:5361   */\n      dup6\n        /* \"#utility.yul\":5311:5382   */\n      tag_139\n      jump\t// in\n    tag_218:\n        /* \"#utility.yul\":5392:5464   */\n      tag_219\n        /* \"#utility.yul\":5460:5462   */\n      0x20\n        /* \"#utility.yul\":5449:5458   */\n      dup4\n        /* \"#utility.yul\":5445:5463   */\n      add\n        /* \"#utility.yul\":5436:5442   */\n      dup5\n        /* \"#utility.yul\":5392:5464   */\n      tag_139\n      jump\t// in\n    tag_219:\n        /* \"#utility.yul\":5139:5471   */\n      swap4\n      swap3\n      pop\n      pop\n      pop\n      jump\t// out\n        /* \"#utility.yul\":5477:5620   */\n    tag_143:\n        /* \"#utility.yul\":5534:5539   */\n      0x00\n        /* \"#utility.yul\":5565:5571   */\n      dup2\n        /* \"#utility.yul\":5559:5572   */\n      mload\n        /* \"#utility.yul\":5550:5572   */\n      swap1\n      pop\n        /* \"#utility.yul\":5581:5614   */\n      tag_221\n        /* \"#utility.yul\":5608:5613   */\n      dup2\n        /* \"#utility.yul\":5581:5614   */\n      tag_128\n      jump\t// in\n    tag_221:\n        /* \"#utility.yul\":5477:5620   */\n      swap3\n      swap2\n      pop\n      pop\n      jump\t// out\n        /* \"#utility.yul\":5626:5977   */\n    tag_84:\n        /* \"#utility.yul\":5696:5702   */\n      0x00\n        /* \"#utility.yul\":5745:5747   */\n      0x20\n        /* \"#utility.yul\":5733:5742   */\n      dup3\n        /* \"#utility.yul\":5724:5731   */\n      dup5\n        /* \"#utility.yul\":5720:5743   */\n      sub\n        /* \"#utility.yul\":5716:5748   */\n      slt\n        /* \"#utility.yul\":5713:5832   */\n      iszero\n      tag_223\n      jumpi\n        /* \"#utility.yul\":5751:5830   */\n      tag_224\n      tag_125\n      jump\t// in\n    tag_224:\n        /* \"#utility.yul\":5713:5832   */\n    tag_223:\n        /* \"#utility.yul\":5871:5872   */\n      0x00\n        /* \"#utility.yul\":5896:5960   */\n      tag_225\n        /* \"#utility.yul\":5952:5959   */\n      dup5\n        /* \"#utility.yul\":5943:5949   */\n      dup3\n        /* \"#utility.yul\":5932:5941   */\n      dup6\n        /* \"#utility.yul\":5928:5950   */\n      add\n        /* \"#utility.yul\":5896:5960   */\n      tag_143\n      jump\t// in\n    tag_225:\n        /* \"#utility.yul\":5886:5960   */\n      swap2\n      pop\n        /* \"#utility.yul\":5842:5970   */\n      pop\n        /* \"#utility.yul\":5626:5977   */\n      swap3\n      swap2\n      pop\n      pop\n      jump\t// out\n        /* \"#utility.yul\":5983:6152   */\n    tag_144:\n        /* \"#utility.yul\":6067:6078   */\n      0x00\n        /* \"#utility.yul\":6101:6107   */\n      dup3\n        /* \"#utility.yul\":6096:6099   */\n      dup3\n        /* \"#utility.yul\":6089:6108   */\n      mstore\n        /* \"#utility.yul\":6141:6145   */\n      0x20\n        /* \"#utility.yul\":6136:6139   */\n      dup3\n        /* \"#utility.yul\":6132:6146   */\n      add\n        /* \"#utility.yul\":6117:6146   */\n      swap1\n      pop\n        /* \"#utility.yul\":5983:6152   */\n      swap3\n      swap2\n      pop\n      pop\n      jump\t// out\n        /* \"#utility.yul\":6158:6333   */\n    tag_145:\n        /* \"#utility.yul\":6298:6325   */\n      0x436865636b2074686520746f6b656e20616c6c6f77616e636500000000000000\n        /* \"#utility.yul\":6294:6295   */\n      0x00\n        /* \"#utility.yul\":6286:6292   */\n      dup3\n        /* \"#utility.yul\":6282:6296   */\n      add\n        /* \"#utility.yul\":6275:6326   */\n      mstore\n        /* \"#utility.yul\":6158:6333   */\n      pop\n      jump\t// out\n        /* \"#utility.yul\":6339:6705   */\n    tag_146:\n        /* \"#utility.yul\":6481:6484   */\n      0x00\n        /* \"#utility.yul\":6502:6569   */\n      tag_229\n        /* \"#utility.yul\":6566:6568   */\n      0x19\n        /* \"#utility.yul\":6561:6564   */\n      dup4\n        /* \"#utility.yul\":6502:6569   */\n      tag_144\n      jump\t// in\n    tag_229:\n        /* \"#utility.yul\":6495:6569   */\n      swap2\n      pop\n        /* \"#utility.yul\":6578:6671   */\n      tag_230\n        /* \"#utility.yul\":6667:6670   */\n      dup3\n        /* \"#utility.yul\":6578:6671   */\n      tag_145\n      jump\t// in\n    tag_230:\n        /* \"#utility.yul\":6696:6698   */\n      0x20\n        /* \"#utility.yul\":6691:6694   */\n      dup3\n        /* \"#utility.yul\":6687:6699   */\n      add\n        /* \"#utility.yul\":6680:6699   */\n      swap1\n      pop\n        /* \"#utility.yul\":6339:6705   */\n      swap2\n      swap1\n      pop\n      jump\t// out\n        /* \"#utility.yul\":6711:7130   */\n    tag_87:\n        /* \"#utility.yul\":6877:6881   */\n      0x00\n        /* \"#utility.yul\":6915:6917   */\n      0x20\n        /* \"#utility.yul\":6904:6913   */\n      dup3\n        /* \"#utility.yul\":6900:6918   */\n      add\n        /* \"#utility.yul\":6892:6918   */\n      swap1\n      pop\n        /* \"#utility.yul\":6964:6973   */\n      dup2\n        /* \"#utility.yul\":6958:6962   */\n      dup2\n        /* \"#utility.yul\":6954:6974   */\n      sub\n        /* \"#utility.yul\":6950:6951   */\n      0x00\n        /* \"#utility.yul\":6939:6948   */\n      dup4\n        /* \"#utility.yul\":6935:6952   */\n      add\n        /* \"#utility.yul\":6928:6975   */\n      mstore\n        /* \"#utility.yul\":6992:7123   */\n      tag_232\n        /* \"#utility.yul\":7118:7122   */\n      dup2\n        /* \"#utility.yul\":6992:7123   */\n      tag_146\n      jump\t// in\n    tag_232:\n        /* \"#utility.yul\":6984:7123   */\n      swap1\n      pop\n        /* \"#utility.yul\":6711:7130   */\n      swap2\n      swap1\n      pop\n      jump\t// out\n        /* \"#utility.yul\":7136:7578   */\n    tag_89:\n        /* \"#utility.yul\":7285:7289   */\n      0x00\n        /* \"#utility.yul\":7323:7325   */\n      0x60\n        /* \"#utility.yul\":7312:7321   */\n      dup3\n        /* \"#utility.yul\":7308:7326   */\n      add\n        /* \"#utility.yul\":7300:7326   */\n      swap1\n      pop\n        /* \"#utility.yul\":7336:7407   */\n      tag_234\n        /* \"#utility.yul\":7404:7405   */\n      0x00\n        /* \"#utility.yul\":7393:7402   */\n      dup4\n        /* \"#utility.yul\":7389:7406   */\n      add\n        /* \"#utility.yul\":7380:7386   */\n      dup7\n        /* \"#utility.yul\":7336:7407   */\n      tag_139\n      jump\t// in\n    tag_234:\n        /* \"#utility.yul\":7417:7489   */\n      tag_235\n        /* \"#utility.yul\":7485:7487   */\n      0x20\n        /* \"#utility.yul\":7474:7483   */\n      dup4\n        /* \"#utility.yul\":7470:7488   */\n      add\n        /* \"#utility.yul\":7461:7467   */\n      dup6\n        /* \"#utility.yul\":7417:7489   */\n      tag_139\n      jump\t// in\n    tag_235:\n        /* \"#utility.yul\":7499:7571   */\n      tag_236\n        /* \"#utility.yul\":7567:7569   */\n      0x40\n        /* \"#utility.yul\":7556:7565   */\n      dup4\n        /* \"#utility.yul\":7552:7570   */\n      add\n        /* \"#utility.yul\":7543:7549   */\n      dup5\n        /* \"#utility.yul\":7499:7571   */\n      tag_136\n      jump\t// in\n    tag_236:\n        /* \"#utility.yul\":7136:7578   */\n      swap5\n      swap4\n      pop\n      pop\n      pop\n      pop\n      jump\t// out\n        /* \"#utility.yul\":7584:7817   */\n    tag_147:\n        /* \"#utility.yul\":7724:7758   */\n      0x4f6e6c792074686520636f6e7472616374206f776e65722063616e2063616c6c\n        /* \"#utility.yul\":7720:7721   */\n      0x00\n        /* \"#utility.yul\":7712:7718   */\n      dup3\n        /* \"#utility.yul\":7708:7722   */\n      add\n        /* \"#utility.yul\":7701:7759   */\n      mstore\n        /* \"#utility.yul\":7793:7809   */\n      0x20746869732066756e6374696f6e000000000000000000000000000000000000\n        /* \"#utility.yul\":7788:7790   */\n      0x20\n        /* \"#utility.yul\":7780:7786   */\n      dup3\n        /* \"#utility.yul\":7776:7791   */\n      add\n        /* \"#utility.yul\":7769:7810   */\n      mstore\n        /* \"#utility.yul\":7584:7817   */\n      pop\n      jump\t// out\n        /* \"#utility.yul\":7823:8189   */\n    tag_148:\n        /* \"#utility.yul\":7965:7968   */\n      0x00\n        /* \"#utility.yul\":7986:8053   */\n      tag_239\n        /* \"#utility.yul\":8050:8052   */\n      0x2e\n        /* \"#utility.yul\":8045:8048   */\n      dup4\n        /* \"#utility.yul\":7986:8053   */\n      tag_144\n      jump\t// in\n    tag_239:\n        /* \"#utility.yul\":7979:8053   */\n      swap2\n      pop\n        /* \"#utility.yul\":8062:8155   */\n      tag_240\n        /* \"#utility.yul\":8151:8154   */\n      dup3\n        /* \"#utility.yul\":8062:8155   */\n      tag_147\n      jump\t// in\n    tag_240:\n        /* \"#utility.yul\":8180:8182   */\n      0x40\n        /* \"#utility.yul\":8175:8178   */\n      dup3\n        /* \"#utility.yul\":8171:8183   */\n      add\n        /* \"#utility.yul\":8164:8183   */\n      swap1\n      pop\n        /* \"#utility.yul\":7823:8189   */\n      swap2\n      swap1\n      pop\n      jump\t// out\n        /* \"#utility.yul\":8195:8614   */\n    tag_96:\n        /* \"#utility.yul\":8361:8365   */\n      0x00\n        /* \"#utility.yul\":8399:8401   */\n      0x20\n        /* \"#utility.yul\":8388:8397   */\n      dup3\n        /* \"#utility.yul\":8384:8402   */\n      add\n        /* \"#utility.yul\":8376:8402   */\n      swap1\n      pop\n        /* \"#utility.yul\":8448:8457   */\n      dup2\n        /* \"#utility.yul\":8442:8446   */\n      dup2\n        /* \"#utility.yul\":8438:8458   */\n      sub\n        /* \"#utility.yul\":8434:8435   */\n      0x00\n        /* \"#utility.yul\":8423:8432   */\n      dup4\n        /* \"#utility.yul\":8419:8436   */\n      add\n        /* \"#utility.yul\":8412:8459   */\n      mstore\n        /* \"#utility.yul\":8476:8607   */\n      tag_242\n        /* \"#utility.yul\":8602:8606   */\n      dup2\n        /* \"#utility.yul\":8476:8607   */\n      tag_148\n      jump\t// in\n    tag_242:\n        /* \"#utility.yul\":8468:8607   */\n      swap1\n      pop\n        /* \"#utility.yul\":8195:8614   */\n      swap2\n      swap1\n      pop\n      jump\t// out\n        /* \"#utility.yul\":8620:8842   */\n    tag_99:\n        /* \"#utility.yul\":8713:8717   */\n      0x00\n        /* \"#utility.yul\":8751:8753   */\n      0x20\n        /* \"#utility.yul\":8740:8749   */\n      dup3\n        /* \"#utility.yul\":8736:8754   */\n      add\n        /* \"#utility.yul\":8728:8754   */\n      swap1\n      pop\n        /* \"#utility.yul\":8764:8835   */\n      tag_244\n        /* \"#utility.yul\":8832:8833   */\n      0x00\n        /* \"#utility.yul\":8821:8830   */\n      dup4\n        /* \"#utility.yul\":8817:8834   */\n      add\n        /* \"#utility.yul\":8808:8814   */\n      dup5\n        /* \"#utility.yul\":8764:8835   */\n      tag_139\n      jump\t// in\n    tag_244:\n        /* \"#utility.yul\":8620:8842   */\n      swap3\n      swap2\n      pop\n      pop\n      jump\t// out\n\n    auxdata: 0xa2646970667358221220605fdc0bece3364690df4ba0c90800f6a0968ce3e29393f01a7d3df5c1aa375464736f6c634300080a0033\n}\n",
				"bytecode": {
					"linkReferences": {},
					"object": "60c060405273e9dce89b076ba6107bb64ef30678efec1193923473ffffffffffffffffffffffffffffffffffffffff1660809073ffffffffffffffffffffffffffffffffffffffff1681525073f14f9596430931e177469715c591513308244e8f73ffffffffffffffffffffffffffffffffffffffff1660a09073ffffffffffffffffffffffffffffffffffffffff16815250605a60035560646004553480156100a857600080fd5b50336000806101000a81548173ffffffffffffffffffffffffffffffffffffffff021916908373ffffffffffffffffffffffffffffffffffffffff16021790555060a051600160006101000a81548173ffffffffffffffffffffffffffffffffffffffff021916908373ffffffffffffffffffffffffffffffffffffffff160217905550608051600260006101000a81548173ffffffffffffffffffffffffffffffffffffffff021916908373ffffffffffffffffffffffffffffffffffffffff16021790555060805160a051610fa461018e6000396000505060005050610fa46000f3fe60806040526004361061008a5760003560e01c80638da5cb5b116100595780638da5cb5b14610116578063a99c68c514610141578063ef0673421461017e578063f688bcfb146101bb578063f8b2cb4f146101e457610091565b806305abf9041461009657806315602991146100ad578063365833e1146100c457806351cff8d9146100ed57610091565b3661009157005b600080fd5b3480156100a257600080fd5b506100ab610221565b005b3480156100b957600080fd5b506100c2610332565b005b3480156100d057600080fd5b506100eb60048036038101906100e69190610aa8565b610443565b005b3480156100f957600080fd5b50610114600480360381019061010f9190610b33565b610625565b005b34801561012257600080fd5b5061012b6107b4565b6040516101389190610b81565b60405180910390f35b34801561014d57600080fd5b5061016860048036038101906101639190610b33565b6107d8565b6040516101759190610bab565b60405180910390f35b34801561018a57600080fd5b506101a560048036038101906101a09190610b33565b6107f0565b6040516101b29190610bab565b60405180910390f35b3480156101c757600080fd5b506101e260048036038101906101dd9190610aa8565b610808565b005b3480156101f057600080fd5b5061020b60048036038101906102069190610b33565b6109ea565b6040516102189190610bab565b60405180910390f35b600064e8d4a510006064600354600660003373ffffffffffffffffffffffffffffffffffffffff1673ffffffffffffffffffffffffffffffffffffffff168152602001908152602001600020546102789190610c24565b6102829190610c55565b61028c9190610c55565b9050600160009054906101000a900473ffffffffffffffffffffffffffffffffffffffff1673ffffffffffffffffffffffffffffffffffffffff1663a9059cbb33836040518363ffffffff1660e01b81526004016102eb929190610cbe565b6020604051808303816000875af115801561030a573d6000803e3d6000fd5b505050506040513d601f19601f8201168201806040525081019061032e9190610d1f565b5050565b600064e8d4a510006064600454600560003373ffffffffffffffffffffffffffffffffffffffff1673ffffffffffffffffffffffffffffffffffffffff168152602001908152602001600020546103899190610c55565b6103939190610c24565b61039d9190610c24565b9050600260009054906101000a900473ffffffffffffffffffffffffffffffffffffffff1673ffffffffffffffffffffffffffffffffffffffff1663a9059cbb33836040518363ffffffff1660e01b81526004016103fc929190610cbe565b6020604051808303816000875af115801561041b573d6000803e3d6000fd5b505050506040513d601f19601f8201168201806040525081019061043f9190610d1f565b5050565b80600560003373ffffffffffffffffffffffffffffffffffffffff1673ffffffffffffffffffffffffffffffffffffffff16815260200190815260200160002060008282546104929190610d4c565b925050819055506000600160009054906101000a900473ffffffffffffffffffffffffffffffffffffffff1673ffffffffffffffffffffffffffffffffffffffff1663dd62ed3e33306040518363ffffffff1660e01b81526004016104f8929190610da2565b602060405180830381865afa158015610515573d6000803e3d6000fd5b505050506040513d601f19601f820116820180604052508101906105399190610de0565b90508181101561057e576040517f08c379a000000000000000000000000000000000000000000000000000000000815260040161057590610e6a565b60405180910390fd5b600160009054906101000a900473ffffffffffffffffffffffffffffffffffffffff1673ffffffffffffffffffffffffffffffffffffffff166323b872dd3330856040518463ffffffff1660e01b81526004016105dd93929190610e8a565b6020604051808303816000875af11580156105fc573d6000803e3d6000fd5b505050506040513d601f19601f820116820180604052508101906106209190610d1f565b505050565b60008054906101000a900473ffffffffffffffffffffffffffffffffffffffff1673ffffffffffffffffffffffffffffffffffffffff163373ffffffffffffffffffffffffffffffffffffffff16146106b3576040517f08c379a00000000000000000000000000000000000000000000000000000000081526004016106aa90610f33565b60405180910390fd5b60008190508073ffffffffffffffffffffffffffffffffffffffff1663a9059cbb338373ffffffffffffffffffffffffffffffffffffffff166370a08231306040518263ffffffff1660e01b815260040161070e9190610f53565b602060405180830381865afa15801561072b573d6000803e3d6000fd5b505050506040513d601f19601f8201168201806040525081019061074f9190610de0565b6040518363ffffffff1660e01b815260040161076c929190610cbe565b6020604051808303816000875af115801561078b573d6000803e3d6000fd5b505050506040513d601f19601f820116820180604052508101906107af9190610d1f565b505050565b60008054906101000a900473ffffffffffffffffffffffffffffffffffffffff1681565b60066020528060005260406000206000915090505481565b60056020528060005260406000206000915090505481565b80600660003373ffffffffffffffffffffffffffffffffffffffff1673ffffffffffffffffffffffffffffffffffffffff16815260200190815260200160002060008282546108579190610d4c565b925050819055506000600260009054906101000a900473ffffffffffffffffffffffffffffffffffffffff1673ffffffffffffffffffffffffffffffffffffffff1663dd62ed3e33306040518363ffffffff1660e01b81526004016108bd929190610da2565b602060405180830381865afa1580156108da573d6000803e3d6000fd5b505050506040513d601f19601f820116820180604052508101906108fe9190610de0565b905081811015610943576040517f08c379a000000000000000000000000000000000000000000000000000000000815260040161093a90610e6a565b60405180910390fd5b600260009054906101000a900473ffffffffffffffffffffffffffffffffffffffff1673ffffffffffffffffffffffffffffffffffffffff166323b872dd3330856040518463ffffffff1660e01b81526004016109a293929190610e8a565b6020604051808303816000875af11580156109c1573d6000803e3d6000fd5b505050506040513d601f19601f820116820180604052508101906109e59190610d1f565b505050565b60008173ffffffffffffffffffffffffffffffffffffffff166370a08231306040518263ffffffff1660e01b8152600401610a259190610f53565b602060405180830381865afa158015610a42573d6000803e3d6000fd5b505050506040513d601f19601f82011682018060405250810190610a669190610de0565b9050919050565b600080fd5b6000819050919050565b610a8581610a72565b8114610a9057600080fd5b50565b600081359050610aa281610a7c565b92915050565b600060208284031215610abe57610abd610a6d565b5b6000610acc84828501610a93565b91505092915050565b600073ffffffffffffffffffffffffffffffffffffffff82169050919050565b6000610b0082610ad5565b9050919050565b610b1081610af5565b8114610b1b57600080fd5b50565b600081359050610b2d81610b07565b92915050565b600060208284031215610b4957610b48610a6d565b5b6000610b5784828501610b1e565b91505092915050565b6000610b6b82610ad5565b9050919050565b610b7b81610b60565b82525050565b6000602082019050610b966000830184610b72565b92915050565b610ba581610a72565b82525050565b6000602082019050610bc06000830184610b9c565b92915050565b7f4e487b7100000000000000000000000000000000000000000000000000000000600052601260045260246000fd5b7f4e487b7100000000000000000000000000000000000000000000000000000000600052601160045260246000fd5b6000610c2f82610a72565b9150610c3a83610a72565b925082610c4a57610c49610bc6565b5b828204905092915050565b6000610c6082610a72565b9150610c6b83610a72565b9250817fffffffffffffffffffffffffffffffffffffffffffffffffffffffffffffffff0483118215151615610ca457610ca3610bf5565b5b828202905092915050565b610cb881610af5565b82525050565b6000604082019050610cd36000830185610caf565b610ce06020830184610b9c565b9392505050565b60008115159050919050565b610cfc81610ce7565b8114610d0757600080fd5b50565b600081519050610d1981610cf3565b92915050565b600060208284031215610d3557610d34610a6d565b5b6000610d4384828501610d0a565b91505092915050565b6000610d5782610a72565b9150610d6283610a72565b9250827fffffffffffffffffffffffffffffffffffffffffffffffffffffffffffffffff03821115610d9757610d96610bf5565b5b828201905092915050565b6000604082019050610db76000830185610caf565b610dc46020830184610caf565b9392505050565b600081519050610dda81610a7c565b92915050565b600060208284031215610df657610df5610a6d565b5b6000610e0484828501610dcb565b91505092915050565b600082825260208201905092915050565b7f436865636b2074686520746f6b656e20616c6c6f77616e636500000000000000600082015250565b6000610e54601983610e0d565b9150610e5f82610e1e565b602082019050919050565b60006020820190508181036000830152610e8381610e47565b9050919050565b6000606082019050610e9f6000830186610caf565b610eac6020830185610caf565b610eb96040830184610b9c565b949350505050565b7f4f6e6c792074686520636f6e7472616374206f776e65722063616e2063616c6c60008201527f20746869732066756e6374696f6e000000000000000000000000000000000000602082015250565b6000610f1d602e83610e0d565b9150610f2882610ec1565b604082019050919050565b60006020820190508181036000830152610f4c81610f10565b9050919050565b6000602082019050610f686000830184610caf565b9291505056fea2646970667358221220605fdc0bece3364690df4ba0c90800f6a0968ce3e29393f01a7d3df5c1aa375464736f6c634300080a0033",
					"opcodes": "PUSH1 0xC0 PUSH1 0x40 MSTORE PUSH20 0xE9DCE89B076BA6107BB64EF30678EFEC11939234 PUSH20 0xFFFFFFFFFFFFFFFFFFFFFFFFFFFFFFFFFFFFFFFF AND PUSH1 0x80 SWAP1 PUSH20 0xFFFFFFFFFFFFFFFFFFFFFFFFFFFFFFFFFFFFFFFF AND DUP2 MSTORE POP PUSH20 0xF14F9596430931E177469715C591513308244E8F PUSH20 0xFFFFFFFFFFFFFFFFFFFFFFFFFFFFFFFFFFFFFFFF AND PUSH1 0xA0 SWAP1 PUSH20 0xFFFFFFFFFFFFFFFFFFFFFFFFFFFFFFFFFFFFFFFF AND DUP2 MSTORE POP PUSH1 0x5A PUSH1 0x3 SSTORE PUSH1 0x64 PUSH1 0x4 SSTORE CALLVALUE DUP1 ISZERO PUSH2 0xA8 JUMPI PUSH1 0x0 DUP1 REVERT JUMPDEST POP CALLER PUSH1 0x0 DUP1 PUSH2 0x100 EXP DUP2 SLOAD DUP2 PUSH20 0xFFFFFFFFFFFFFFFFFFFFFFFFFFFFFFFFFFFFFFFF MUL NOT AND SWAP1 DUP4 PUSH20 0xFFFFFFFFFFFFFFFFFFFFFFFFFFFFFFFFFFFFFFFF AND MUL OR SWAP1 SSTORE POP PUSH1 0xA0 MLOAD PUSH1 0x1 PUSH1 0x0 PUSH2 0x100 EXP DUP2 SLOAD DUP2 PUSH20 0xFFFFFFFFFFFFFFFFFFFFFFFFFFFFFFFFFFFFFFFF MUL NOT AND SWAP1 DUP4 PUSH20 0xFFFFFFFFFFFFFFFFFFFFFFFFFFFFFFFFFFFFFFFF AND MUL OR SWAP1 SSTORE POP PUSH1 0x80 MLOAD PUSH1 0x2 PUSH1 0x0 PUSH2 0x100 EXP DUP2 SLOAD DUP2 PUSH20 0xFFFFFFFFFFFFFFFFFFFFFFFFFFFFFFFFFFFFFFFF MUL NOT AND SWAP1 DUP4 PUSH20 0xFFFFFFFFFFFFFFFFFFFFFFFFFFFFFFFFFFFFFFFF AND MUL OR SWAP1 SSTORE POP PUSH1 0x80 MLOAD PUSH1 0xA0 MLOAD PUSH2 0xFA4 PUSH2 0x18E PUSH1 0x0 CODECOPY PUSH1 0x0 POP POP PUSH1 0x0 POP POP PUSH2 0xFA4 PUSH1 0x0 RETURN INVALID PUSH1 0x80 PUSH1 0x40 MSTORE PUSH1 0x4 CALLDATASIZE LT PUSH2 0x8A JUMPI PUSH1 0x0 CALLDATALOAD PUSH1 0xE0 SHR DUP1 PUSH4 0x8DA5CB5B GT PUSH2 0x59 JUMPI DUP1 PUSH4 0x8DA5CB5B EQ PUSH2 0x116 JUMPI DUP1 PUSH4 0xA99C68C5 EQ PUSH2 0x141 JUMPI DUP1 PUSH4 0xEF067342 EQ PUSH2 0x17E JUMPI DUP1 PUSH4 0xF688BCFB EQ PUSH2 0x1BB JUMPI DUP1 PUSH4 0xF8B2CB4F EQ PUSH2 0x1E4 JUMPI PUSH2 0x91 JUMP JUMPDEST DUP1 PUSH4 0x5ABF904 EQ PUSH2 0x96 JUMPI DUP1 PUSH4 0x15602991 EQ PUSH2 0xAD JUMPI DUP1 PUSH4 0x365833E1 EQ PUSH2 0xC4 JUMPI DUP1 PUSH4 0x51CFF8D9 EQ PUSH2 0xED JUMPI PUSH2 0x91 JUMP JUMPDEST CALLDATASIZE PUSH2 0x91 JUMPI STOP JUMPDEST PUSH1 0x0 DUP1 REVERT JUMPDEST CALLVALUE DUP1 ISZERO PUSH2 0xA2 JUMPI PUSH1 0x0 DUP1 REVERT JUMPDEST POP PUSH2 0xAB PUSH2 0x221 JUMP JUMPDEST STOP JUMPDEST CALLVALUE DUP1 ISZERO PUSH2 0xB9 JUMPI PUSH1 0x0 DUP1 REVERT JUMPDEST POP PUSH2 0xC2 PUSH2 0x332 JUMP JUMPDEST STOP JUMPDEST CALLVALUE DUP1 ISZERO PUSH2 0xD0 JUMPI PUSH1 0x0 DUP1 REVERT JUMPDEST POP PUSH2 0xEB PUSH1 0x4 DUP1 CALLDATASIZE SUB DUP2 ADD SWAP1 PUSH2 0xE6 SWAP2 SWAP1 PUSH2 0xAA8 JUMP JUMPDEST PUSH2 0x443 JUMP JUMPDEST STOP JUMPDEST CALLVALUE DUP1 ISZERO PUSH2 0xF9 JUMPI PUSH1 0x0 DUP1 REVERT JUMPDEST POP PUSH2 0x114 PUSH1 0x4 DUP1 CALLDATASIZE SUB DUP2 ADD SWAP1 PUSH2 0x10F SWAP2 SWAP1 PUSH2 0xB33 JUMP JUMPDEST PUSH2 0x625 JUMP JUMPDEST STOP JUMPDEST CALLVALUE DUP1 ISZERO PUSH2 0x122 JUMPI PUSH1 0x0 DUP1 REVERT JUMPDEST POP PUSH2 0x12B PUSH2 0x7B4 JUMP JUMPDEST PUSH1 0x40 MLOAD PUSH2 0x138 SWAP2 SWAP1 PUSH2 0xB81 JUMP JUMPDEST PUSH1 0x40 MLOAD DUP1 SWAP2 SUB SWAP1 RETURN JUMPDEST CALLVALUE DUP1 ISZERO PUSH2 0x14D JUMPI PUSH1 0x0 DUP1 REVERT JUMPDEST POP PUSH2 0x168 PUSH1 0x4 DUP1 CALLDATASIZE SUB DUP2 ADD SWAP1 PUSH2 0x163 SWAP2 SWAP1 PUSH2 0xB33 JUMP JUMPDEST PUSH2 0x7D8 JUMP JUMPDEST PUSH1 0x40 MLOAD PUSH2 0x175 SWAP2 SWAP1 PUSH2 0xBAB JUMP JUMPDEST PUSH1 0x40 MLOAD DUP1 SWAP2 SUB SWAP1 RETURN JUMPDEST CALLVALUE DUP1 ISZERO PUSH2 0x18A JUMPI PUSH1 0x0 DUP1 REVERT JUMPDEST POP PUSH2 0x1A5 PUSH1 0x4 DUP1 CALLDATASIZE SUB DUP2 ADD SWAP1 PUSH2 0x1A0 SWAP2 SWAP1 PUSH2 0xB33 JUMP JUMPDEST PUSH2 0x7F0 JUMP JUMPDEST PUSH1 0x40 MLOAD PUSH2 0x1B2 SWAP2 SWAP1 PUSH2 0xBAB JUMP JUMPDEST PUSH1 0x40 MLOAD DUP1 SWAP2 SUB SWAP1 RETURN JUMPDEST CALLVALUE DUP1 ISZERO PUSH2 0x1C7 JUMPI PUSH1 0x0 DUP1 REVERT JUMPDEST POP PUSH2 0x1E2 PUSH1 0x4 DUP1 CALLDATASIZE SUB DUP2 ADD SWAP1 PUSH2 0x1DD SWAP2 SWAP1 PUSH2 0xAA8 JUMP JUMPDEST PUSH2 0x808 JUMP JUMPDEST STOP JUMPDEST CALLVALUE DUP1 ISZERO PUSH2 0x1F0 JUMPI PUSH1 0x0 DUP1 REVERT JUMPDEST POP PUSH2 0x20B PUSH1 0x4 DUP1 CALLDATASIZE SUB DUP2 ADD SWAP1 PUSH2 0x206 SWAP2 SWAP1 PUSH2 0xB33 JUMP JUMPDEST PUSH2 0x9EA JUMP JUMPDEST PUSH1 0x40 MLOAD PUSH2 0x218 SWAP2 SWAP1 PUSH2 0xBAB JUMP JUMPDEST PUSH1 0x40 MLOAD DUP1 SWAP2 SUB SWAP1 RETURN JUMPDEST PUSH1 0x0 PUSH5 0xE8D4A51000 PUSH1 0x64 PUSH1 0x3 SLOAD PUSH1 0x6 PUSH1 0x0 CALLER PUSH20 0xFFFFFFFFFFFFFFFFFFFFFFFFFFFFFFFFFFFFFFFF AND PUSH20 0xFFFFFFFFFFFFFFFFFFFFFFFFFFFFFFFFFFFFFFFF AND DUP2 MSTORE PUSH1 0x20 ADD SWAP1 DUP2 MSTORE PUSH1 0x20 ADD PUSH1 0x0 KECCAK256 SLOAD PUSH2 0x278 SWAP2 SWAP1 PUSH2 0xC24 JUMP JUMPDEST PUSH2 0x282 SWAP2 SWAP1 PUSH2 0xC55 JUMP JUMPDEST PUSH2 0x28C SWAP2 SWAP1 PUSH2 0xC55 JUMP JUMPDEST SWAP1 POP PUSH1 0x1 PUSH1 0x0 SWAP1 SLOAD SWAP1 PUSH2 0x100 EXP SWAP1 DIV PUSH20 0xFFFFFFFFFFFFFFFFFFFFFFFFFFFFFFFFFFFFFFFF AND PUSH20 0xFFFFFFFFFFFFFFFFFFFFFFFFFFFFFFFFFFFFFFFF AND PUSH4 0xA9059CBB CALLER DUP4 PUSH1 0x40 MLOAD DUP4 PUSH4 0xFFFFFFFF AND PUSH1 0xE0 SHL DUP2 MSTORE PUSH1 0x4 ADD PUSH2 0x2EB SWAP3 SWAP2 SWAP1 PUSH2 0xCBE JUMP JUMPDEST PUSH1 0x20 PUSH1 0x40 MLOAD DUP1 DUP4 SUB DUP2 PUSH1 0x0 DUP8 GAS CALL ISZERO DUP1 ISZERO PUSH2 0x30A JUMPI RETURNDATASIZE PUSH1 0x0 DUP1 RETURNDATACOPY RETURNDATASIZE PUSH1 0x0 REVERT JUMPDEST POP POP POP POP PUSH1 0x40 MLOAD RETURNDATASIZE PUSH1 0x1F NOT PUSH1 0x1F DUP3 ADD AND DUP3 ADD DUP1 PUSH1 0x40 MSTORE POP DUP2 ADD SWAP1 PUSH2 0x32E SWAP2 SWAP1 PUSH2 0xD1F JUMP JUMPDEST POP POP JUMP JUMPDEST PUSH1 0x0 PUSH5 0xE8D4A51000 PUSH1 0x64 PUSH1 0x4 SLOAD PUSH1 0x5 PUSH1 0x0 CALLER PUSH20 0xFFFFFFFFFFFFFFFFFFFFFFFFFFFFFFFFFFFFFFFF AND PUSH20 0xFFFFFFFFFFFFFFFFFFFFFFFFFFFFFFFFFFFFFFFF AND DUP2 MSTORE PUSH1 0x20 ADD SWAP1 DUP2 MSTORE PUSH1 0x20 ADD PUSH1 0x0 KECCAK256 SLOAD PUSH2 0x389 SWAP2 SWAP1 PUSH2 0xC55 JUMP JUMPDEST PUSH2 0x393 SWAP2 SWAP1 PUSH2 0xC24 JUMP JUMPDEST PUSH2 0x39D SWAP2 SWAP1 PUSH2 0xC24 JUMP JUMPDEST SWAP1 POP PUSH1 0x2 PUSH1 0x0 SWAP1 SLOAD SWAP1 PUSH2 0x100 EXP SWAP1 DIV PUSH20 0xFFFFFFFFFFFFFFFFFFFFFFFFFFFFFFFFFFFFFFFF AND PUSH20 0xFFFFFFFFFFFFFFFFFFFFFFFFFFFFFFFFFFFFFFFF AND PUSH4 0xA9059CBB CALLER DUP4 PUSH1 0x40 MLOAD DUP4 PUSH4 0xFFFFFFFF AND PUSH1 0xE0 SHL DUP2 MSTORE PUSH1 0x4 ADD PUSH2 0x3FC SWAP3 SWAP2 SWAP1 PUSH2 0xCBE JUMP JUMPDEST PUSH1 0x20 PUSH1 0x40 MLOAD DUP1 DUP4 SUB DUP2 PUSH1 0x0 DUP8 GAS CALL ISZERO DUP1 ISZERO PUSH2 0x41B JUMPI RETURNDATASIZE PUSH1 0x0 DUP1 RETURNDATACOPY RETURNDATASIZE PUSH1 0x0 REVERT JUMPDEST POP POP POP POP PUSH1 0x40 MLOAD RETURNDATASIZE PUSH1 0x1F NOT PUSH1 0x1F DUP3 ADD AND DUP3 ADD DUP1 PUSH1 0x40 MSTORE POP DUP2 ADD SWAP1 PUSH2 0x43F SWAP2 SWAP1 PUSH2 0xD1F JUMP JUMPDEST POP POP JUMP JUMPDEST DUP1 PUSH1 0x5 PUSH1 0x0 CALLER PUSH20 0xFFFFFFFFFFFFFFFFFFFFFFFFFFFFFFFFFFFFFFFF AND PUSH20 0xFFFFFFFFFFFFFFFFFFFFFFFFFFFFFFFFFFFFFFFF AND DUP2 MSTORE PUSH1 0x20 ADD SWAP1 DUP2 MSTORE PUSH1 0x20 ADD PUSH1 0x0 KECCAK256 PUSH1 0x0 DUP3 DUP3 SLOAD PUSH2 0x492 SWAP2 SWAP1 PUSH2 0xD4C JUMP JUMPDEST SWAP3 POP POP DUP2 SWAP1 SSTORE POP PUSH1 0x0 PUSH1 0x1 PUSH1 0x0 SWAP1 SLOAD SWAP1 PUSH2 0x100 EXP SWAP1 DIV PUSH20 0xFFFFFFFFFFFFFFFFFFFFFFFFFFFFFFFFFFFFFFFF AND PUSH20 0xFFFFFFFFFFFFFFFFFFFFFFFFFFFFFFFFFFFFFFFF AND PUSH4 0xDD62ED3E CALLER ADDRESS PUSH1 0x40 MLOAD DUP4 PUSH4 0xFFFFFFFF AND PUSH1 0xE0 SHL DUP2 MSTORE PUSH1 0x4 ADD PUSH2 0x4F8 SWAP3 SWAP2 SWAP1 PUSH2 0xDA2 JUMP JUMPDEST PUSH1 0x20 PUSH1 0x40 MLOAD DUP1 DUP4 SUB DUP2 DUP7 GAS STATICCALL ISZERO DUP1 ISZERO PUSH2 0x515 JUMPI RETURNDATASIZE PUSH1 0x0 DUP1 RETURNDATACOPY RETURNDATASIZE PUSH1 0x0 REVERT JUMPDEST POP POP POP POP PUSH1 0x40 MLOAD RETURNDATASIZE PUSH1 0x1F NOT PUSH1 0x1F DUP3 ADD AND DUP3 ADD DUP1 PUSH1 0x40 MSTORE POP DUP2 ADD SWAP1 PUSH2 0x539 SWAP2 SWAP1 PUSH2 0xDE0 JUMP JUMPDEST SWAP1 POP DUP2 DUP2 LT ISZERO PUSH2 0x57E JUMPI PUSH1 0x40 MLOAD PUSH32 0x8C379A000000000000000000000000000000000000000000000000000000000 DUP2 MSTORE PUSH1 0x4 ADD PUSH2 0x575 SWAP1 PUSH2 0xE6A JUMP JUMPDEST PUSH1 0x40 MLOAD DUP1 SWAP2 SUB SWAP1 REVERT JUMPDEST PUSH1 0x1 PUSH1 0x0 SWAP1 SLOAD SWAP1 PUSH2 0x100 EXP SWAP1 DIV PUSH20 0xFFFFFFFFFFFFFFFFFFFFFFFFFFFFFFFFFFFFFFFF AND PUSH20 0xFFFFFFFFFFFFFFFFFFFFFFFFFFFFFFFFFFFFFFFF AND PUSH4 0x23B872DD CALLER ADDRESS DUP6 PUSH1 0x40 MLOAD DUP5 PUSH4 0xFFFFFFFF AND PUSH1 0xE0 SHL DUP2 MSTORE PUSH1 0x4 ADD PUSH2 0x5DD SWAP4 SWAP3 SWAP2 SWAP1 PUSH2 0xE8A JUMP JUMPDEST PUSH1 0x20 PUSH1 0x40 MLOAD DUP1 DUP4 SUB DUP2 PUSH1 0x0 DUP8 GAS CALL ISZERO DUP1 ISZERO PUSH2 0x5FC JUMPI RETURNDATASIZE PUSH1 0x0 DUP1 RETURNDATACOPY RETURNDATASIZE PUSH1 0x0 REVERT JUMPDEST POP POP POP POP PUSH1 0x40 MLOAD RETURNDATASIZE PUSH1 0x1F NOT PUSH1 0x1F DUP3 ADD AND DUP3 ADD DUP1 PUSH1 0x40 MSTORE POP DUP2 ADD SWAP1 PUSH2 0x620 SWAP2 SWAP1 PUSH2 0xD1F JUMP JUMPDEST POP POP POP JUMP JUMPDEST PUSH1 0x0 DUP1 SLOAD SWAP1 PUSH2 0x100 EXP SWAP1 DIV PUSH20 0xFFFFFFFFFFFFFFFFFFFFFFFFFFFFFFFFFFFFFFFF AND PUSH20 0xFFFFFFFFFFFFFFFFFFFFFFFFFFFFFFFFFFFFFFFF AND CALLER PUSH20 0xFFFFFFFFFFFFFFFFFFFFFFFFFFFFFFFFFFFFFFFF AND EQ PUSH2 0x6B3 JUMPI PUSH1 0x40 MLOAD PUSH32 0x8C379A000000000000000000000000000000000000000000000000000000000 DUP2 MSTORE PUSH1 0x4 ADD PUSH2 0x6AA SWAP1 PUSH2 0xF33 JUMP JUMPDEST PUSH1 0x40 MLOAD DUP1 SWAP2 SUB SWAP1 REVERT JUMPDEST PUSH1 0x0 DUP2 SWAP1 POP DUP1 PUSH20 0xFFFFFFFFFFFFFFFFFFFFFFFFFFFFFFFFFFFFFFFF AND PUSH4 0xA9059CBB CALLER DUP4 PUSH20 0xFFFFFFFFFFFFFFFFFFFFFFFFFFFFFFFFFFFFFFFF AND PUSH4 0x70A08231 ADDRESS PUSH1 0x40 MLOAD DUP3 PUSH4 0xFFFFFFFF AND PUSH1 0xE0 SHL DUP2 MSTORE PUSH1 0x4 ADD PUSH2 0x70E SWAP2 SWAP1 PUSH2 0xF53 JUMP JUMPDEST PUSH1 0x20 PUSH1 0x40 MLOAD DUP1 DUP4 SUB DUP2 DUP7 GAS STATICCALL ISZERO DUP1 ISZERO PUSH2 0x72B JUMPI RETURNDATASIZE PUSH1 0x0 DUP1 RETURNDATACOPY RETURNDATASIZE PUSH1 0x0 REVERT JUMPDEST POP POP POP POP PUSH1 0x40 MLOAD RETURNDATASIZE PUSH1 0x1F NOT PUSH1 0x1F DUP3 ADD AND DUP3 ADD DUP1 PUSH1 0x40 MSTORE POP DUP2 ADD SWAP1 PUSH2 0x74F SWAP2 SWAP1 PUSH2 0xDE0 JUMP JUMPDEST PUSH1 0x40 MLOAD DUP4 PUSH4 0xFFFFFFFF AND PUSH1 0xE0 SHL DUP2 MSTORE PUSH1 0x4 ADD PUSH2 0x76C SWAP3 SWAP2 SWAP1 PUSH2 0xCBE JUMP JUMPDEST PUSH1 0x20 PUSH1 0x40 MLOAD DUP1 DUP4 SUB DUP2 PUSH1 0x0 DUP8 GAS CALL ISZERO DUP1 ISZERO PUSH2 0x78B JUMPI RETURNDATASIZE PUSH1 0x0 DUP1 RETURNDATACOPY RETURNDATASIZE PUSH1 0x0 REVERT JUMPDEST POP POP POP POP PUSH1 0x40 MLOAD RETURNDATASIZE PUSH1 0x1F NOT PUSH1 0x1F DUP3 ADD AND DUP3 ADD DUP1 PUSH1 0x40 MSTORE POP DUP2 ADD SWAP1 PUSH2 0x7AF SWAP2 SWAP1 PUSH2 0xD1F JUMP JUMPDEST POP POP POP JUMP JUMPDEST PUSH1 0x0 DUP1 SLOAD SWAP1 PUSH2 0x100 EXP SWAP1 DIV PUSH20 0xFFFFFFFFFFFFFFFFFFFFFFFFFFFFFFFFFFFFFFFF AND DUP2 JUMP JUMPDEST PUSH1 0x6 PUSH1 0x20 MSTORE DUP1 PUSH1 0x0 MSTORE PUSH1 0x40 PUSH1 0x0 KECCAK256 PUSH1 0x0 SWAP2 POP SWAP1 POP SLOAD DUP2 JUMP JUMPDEST PUSH1 0x5 PUSH1 0x20 MSTORE DUP1 PUSH1 0x0 MSTORE PUSH1 0x40 PUSH1 0x0 KECCAK256 PUSH1 0x0 SWAP2 POP SWAP1 POP SLOAD DUP2 JUMP JUMPDEST DUP1 PUSH1 0x6 PUSH1 0x0 CALLER PUSH20 0xFFFFFFFFFFFFFFFFFFFFFFFFFFFFFFFFFFFFFFFF AND PUSH20 0xFFFFFFFFFFFFFFFFFFFFFFFFFFFFFFFFFFFFFFFF AND DUP2 MSTORE PUSH1 0x20 ADD SWAP1 DUP2 MSTORE PUSH1 0x20 ADD PUSH1 0x0 KECCAK256 PUSH1 0x0 DUP3 DUP3 SLOAD PUSH2 0x857 SWAP2 SWAP1 PUSH2 0xD4C JUMP JUMPDEST SWAP3 POP POP DUP2 SWAP1 SSTORE POP PUSH1 0x0 PUSH1 0x2 PUSH1 0x0 SWAP1 SLOAD SWAP1 PUSH2 0x100 EXP SWAP1 DIV PUSH20 0xFFFFFFFFFFFFFFFFFFFFFFFFFFFFFFFFFFFFFFFF AND PUSH20 0xFFFFFFFFFFFFFFFFFFFFFFFFFFFFFFFFFFFFFFFF AND PUSH4 0xDD62ED3E CALLER ADDRESS PUSH1 0x40 MLOAD DUP4 PUSH4 0xFFFFFFFF AND PUSH1 0xE0 SHL DUP2 MSTORE PUSH1 0x4 ADD PUSH2 0x8BD SWAP3 SWAP2 SWAP1 PUSH2 0xDA2 JUMP JUMPDEST PUSH1 0x20 PUSH1 0x40 MLOAD DUP1 DUP4 SUB DUP2 DUP7 GAS STATICCALL ISZERO DUP1 ISZERO PUSH2 0x8DA JUMPI RETURNDATASIZE PUSH1 0x0 DUP1 RETURNDATACOPY RETURNDATASIZE PUSH1 0x0 REVERT JUMPDEST POP POP POP POP PUSH1 0x40 MLOAD RETURNDATASIZE PUSH1 0x1F NOT PUSH1 0x1F DUP3 ADD AND DUP3 ADD DUP1 PUSH1 0x40 MSTORE POP DUP2 ADD SWAP1 PUSH2 0x8FE SWAP2 SWAP1 PUSH2 0xDE0 JUMP JUMPDEST SWAP1 POP DUP2 DUP2 LT ISZERO PUSH2 0x943 JUMPI PUSH1 0x40 MLOAD PUSH32 0x8C379A000000000000000000000000000000000000000000000000000000000 DUP2 MSTORE PUSH1 0x4 ADD PUSH2 0x93A SWAP1 PUSH2 0xE6A JUMP JUMPDEST PUSH1 0x40 MLOAD DUP1 SWAP2 SUB SWAP1 REVERT JUMPDEST PUSH1 0x2 PUSH1 0x0 SWAP1 SLOAD SWAP1 PUSH2 0x100 EXP SWAP1 DIV PUSH20 0xFFFFFFFFFFFFFFFFFFFFFFFFFFFFFFFFFFFFFFFF AND PUSH20 0xFFFFFFFFFFFFFFFFFFFFFFFFFFFFFFFFFFFFFFFF AND PUSH4 0x23B872DD CALLER ADDRESS DUP6 PUSH1 0x40 MLOAD DUP5 PUSH4 0xFFFFFFFF AND PUSH1 0xE0 SHL DUP2 MSTORE PUSH1 0x4 ADD PUSH2 0x9A2 SWAP4 SWAP3 SWAP2 SWAP1 PUSH2 0xE8A JUMP JUMPDEST PUSH1 0x20 PUSH1 0x40 MLOAD DUP1 DUP4 SUB DUP2 PUSH1 0x0 DUP8 GAS CALL ISZERO DUP1 ISZERO PUSH2 0x9C1 JUMPI RETURNDATASIZE PUSH1 0x0 DUP1 RETURNDATACOPY RETURNDATASIZE PUSH1 0x0 REVERT JUMPDEST POP POP POP POP PUSH1 0x40 MLOAD RETURNDATASIZE PUSH1 0x1F NOT PUSH1 0x1F DUP3 ADD AND DUP3 ADD DUP1 PUSH1 0x40 MSTORE POP DUP2 ADD SWAP1 PUSH2 0x9E5 SWAP2 SWAP1 PUSH2 0xD1F JUMP JUMPDEST POP POP POP JUMP JUMPDEST PUSH1 0x0 DUP2 PUSH20 0xFFFFFFFFFFFFFFFFFFFFFFFFFFFFFFFFFFFFFFFF AND PUSH4 0x70A08231 ADDRESS PUSH1 0x40 MLOAD DUP3 PUSH4 0xFFFFFFFF AND PUSH1 0xE0 SHL DUP2 MSTORE PUSH1 0x4 ADD PUSH2 0xA25 SWAP2 SWAP1 PUSH2 0xF53 JUMP JUMPDEST PUSH1 0x20 PUSH1 0x40 MLOAD DUP1 DUP4 SUB DUP2 DUP7 GAS STATICCALL ISZERO DUP1 ISZERO PUSH2 0xA42 JUMPI RETURNDATASIZE PUSH1 0x0 DUP1 RETURNDATACOPY RETURNDATASIZE PUSH1 0x0 REVERT JUMPDEST POP POP POP POP PUSH1 0x40 MLOAD RETURNDATASIZE PUSH1 0x1F NOT PUSH1 0x1F DUP3 ADD AND DUP3 ADD DUP1 PUSH1 0x40 MSTORE POP DUP2 ADD SWAP1 PUSH2 0xA66 SWAP2 SWAP1 PUSH2 0xDE0 JUMP JUMPDEST SWAP1 POP SWAP2 SWAP1 POP JUMP JUMPDEST PUSH1 0x0 DUP1 REVERT JUMPDEST PUSH1 0x0 DUP2 SWAP1 POP SWAP2 SWAP1 POP JUMP JUMPDEST PUSH2 0xA85 DUP2 PUSH2 0xA72 JUMP JUMPDEST DUP2 EQ PUSH2 0xA90 JUMPI PUSH1 0x0 DUP1 REVERT JUMPDEST POP JUMP JUMPDEST PUSH1 0x0 DUP2 CALLDATALOAD SWAP1 POP PUSH2 0xAA2 DUP2 PUSH2 0xA7C JUMP JUMPDEST SWAP3 SWAP2 POP POP JUMP JUMPDEST PUSH1 0x0 PUSH1 0x20 DUP3 DUP5 SUB SLT ISZERO PUSH2 0xABE JUMPI PUSH2 0xABD PUSH2 0xA6D JUMP JUMPDEST JUMPDEST PUSH1 0x0 PUSH2 0xACC DUP5 DUP3 DUP6 ADD PUSH2 0xA93 JUMP JUMPDEST SWAP2 POP POP SWAP3 SWAP2 POP POP JUMP JUMPDEST PUSH1 0x0 PUSH20 0xFFFFFFFFFFFFFFFFFFFFFFFFFFFFFFFFFFFFFFFF DUP3 AND SWAP1 POP SWAP2 SWAP1 POP JUMP JUMPDEST PUSH1 0x0 PUSH2 0xB00 DUP3 PUSH2 0xAD5 JUMP JUMPDEST SWAP1 POP SWAP2 SWAP1 POP JUMP JUMPDEST PUSH2 0xB10 DUP2 PUSH2 0xAF5 JUMP JUMPDEST DUP2 EQ PUSH2 0xB1B JUMPI PUSH1 0x0 DUP1 REVERT JUMPDEST POP JUMP JUMPDEST PUSH1 0x0 DUP2 CALLDATALOAD SWAP1 POP PUSH2 0xB2D DUP2 PUSH2 0xB07 JUMP JUMPDEST SWAP3 SWAP2 POP POP JUMP JUMPDEST PUSH1 0x0 PUSH1 0x20 DUP3 DUP5 SUB SLT ISZERO PUSH2 0xB49 JUMPI PUSH2 0xB48 PUSH2 0xA6D JUMP JUMPDEST JUMPDEST PUSH1 0x0 PUSH2 0xB57 DUP5 DUP3 DUP6 ADD PUSH2 0xB1E JUMP JUMPDEST SWAP2 POP POP SWAP3 SWAP2 POP POP JUMP JUMPDEST PUSH1 0x0 PUSH2 0xB6B DUP3 PUSH2 0xAD5 JUMP JUMPDEST SWAP1 POP SWAP2 SWAP1 POP JUMP JUMPDEST PUSH2 0xB7B DUP2 PUSH2 0xB60 JUMP JUMPDEST DUP3 MSTORE POP POP JUMP JUMPDEST PUSH1 0x0 PUSH1 0x20 DUP3 ADD SWAP1 POP PUSH2 0xB96 PUSH1 0x0 DUP4 ADD DUP5 PUSH2 0xB72 JUMP JUMPDEST SWAP3 SWAP2 POP POP JUMP JUMPDEST PUSH2 0xBA5 DUP2 PUSH2 0xA72 JUMP JUMPDEST DUP3 MSTORE POP POP JUMP JUMPDEST PUSH1 0x0 PUSH1 0x20 DUP3 ADD SWAP1 POP PUSH2 0xBC0 PUSH1 0x0 DUP4 ADD DUP5 PUSH2 0xB9C JUMP JUMPDEST SWAP3 SWAP2 POP POP JUMP JUMPDEST PUSH32 0x4E487B7100000000000000000000000000000000000000000000000000000000 PUSH1 0x0 MSTORE PUSH1 0x12 PUSH1 0x4 MSTORE PUSH1 0x24 PUSH1 0x0 REVERT JUMPDEST PUSH32 0x4E487B7100000000000000000000000000000000000000000000000000000000 PUSH1 0x0 MSTORE PUSH1 0x11 PUSH1 0x4 MSTORE PUSH1 0x24 PUSH1 0x0 REVERT JUMPDEST PUSH1 0x0 PUSH2 0xC2F DUP3 PUSH2 0xA72 JUMP JUMPDEST SWAP2 POP PUSH2 0xC3A DUP4 PUSH2 0xA72 JUMP JUMPDEST SWAP3 POP DUP3 PUSH2 0xC4A JUMPI PUSH2 0xC49 PUSH2 0xBC6 JUMP JUMPDEST JUMPDEST DUP3 DUP3 DIV SWAP1 POP SWAP3 SWAP2 POP POP JUMP JUMPDEST PUSH1 0x0 PUSH2 0xC60 DUP3 PUSH2 0xA72 JUMP JUMPDEST SWAP2 POP PUSH2 0xC6B DUP4 PUSH2 0xA72 JUMP JUMPDEST SWAP3 POP DUP2 PUSH32 0xFFFFFFFFFFFFFFFFFFFFFFFFFFFFFFFFFFFFFFFFFFFFFFFFFFFFFFFFFFFFFFFF DIV DUP4 GT DUP3 ISZERO ISZERO AND ISZERO PUSH2 0xCA4 JUMPI PUSH2 0xCA3 PUSH2 0xBF5 JUMP JUMPDEST JUMPDEST DUP3 DUP3 MUL SWAP1 POP SWAP3 SWAP2 POP POP JUMP JUMPDEST PUSH2 0xCB8 DUP2 PUSH2 0xAF5 JUMP JUMPDEST DUP3 MSTORE POP POP JUMP JUMPDEST PUSH1 0x0 PUSH1 0x40 DUP3 ADD SWAP1 POP PUSH2 0xCD3 PUSH1 0x0 DUP4 ADD DUP6 PUSH2 0xCAF JUMP JUMPDEST PUSH2 0xCE0 PUSH1 0x20 DUP4 ADD DUP5 PUSH2 0xB9C JUMP JUMPDEST SWAP4 SWAP3 POP POP POP JUMP JUMPDEST PUSH1 0x0 DUP2 ISZERO ISZERO SWAP1 POP SWAP2 SWAP1 POP JUMP JUMPDEST PUSH2 0xCFC DUP2 PUSH2 0xCE7 JUMP JUMPDEST DUP2 EQ PUSH2 0xD07 JUMPI PUSH1 0x0 DUP1 REVERT JUMPDEST POP JUMP JUMPDEST PUSH1 0x0 DUP2 MLOAD SWAP1 POP PUSH2 0xD19 DUP2 PUSH2 0xCF3 JUMP JUMPDEST SWAP3 SWAP2 POP POP JUMP JUMPDEST PUSH1 0x0 PUSH1 0x20 DUP3 DUP5 SUB SLT ISZERO PUSH2 0xD35 JUMPI PUSH2 0xD34 PUSH2 0xA6D JUMP JUMPDEST JUMPDEST PUSH1 0x0 PUSH2 0xD43 DUP5 DUP3 DUP6 ADD PUSH2 0xD0A JUMP JUMPDEST SWAP2 POP POP SWAP3 SWAP2 POP POP JUMP JUMPDEST PUSH1 0x0 PUSH2 0xD57 DUP3 PUSH2 0xA72 JUMP JUMPDEST SWAP2 POP PUSH2 0xD62 DUP4 PUSH2 0xA72 JUMP JUMPDEST SWAP3 POP DUP3 PUSH32 0xFFFFFFFFFFFFFFFFFFFFFFFFFFFFFFFFFFFFFFFFFFFFFFFFFFFFFFFFFFFFFFFF SUB DUP3 GT ISZERO PUSH2 0xD97 JUMPI PUSH2 0xD96 PUSH2 0xBF5 JUMP JUMPDEST JUMPDEST DUP3 DUP3 ADD SWAP1 POP SWAP3 SWAP2 POP POP JUMP JUMPDEST PUSH1 0x0 PUSH1 0x40 DUP3 ADD SWAP1 POP PUSH2 0xDB7 PUSH1 0x0 DUP4 ADD DUP6 PUSH2 0xCAF JUMP JUMPDEST PUSH2 0xDC4 PUSH1 0x20 DUP4 ADD DUP5 PUSH2 0xCAF JUMP JUMPDEST SWAP4 SWAP3 POP POP POP JUMP JUMPDEST PUSH1 0x0 DUP2 MLOAD SWAP1 POP PUSH2 0xDDA DUP2 PUSH2 0xA7C JUMP JUMPDEST SWAP3 SWAP2 POP POP JUMP JUMPDEST PUSH1 0x0 PUSH1 0x20 DUP3 DUP5 SUB SLT ISZERO PUSH2 0xDF6 JUMPI PUSH2 0xDF5 PUSH2 0xA6D JUMP JUMPDEST JUMPDEST PUSH1 0x0 PUSH2 0xE04 DUP5 DUP3 DUP6 ADD PUSH2 0xDCB JUMP JUMPDEST SWAP2 POP POP SWAP3 SWAP2 POP POP JUMP JUMPDEST PUSH1 0x0 DUP3 DUP3 MSTORE PUSH1 0x20 DUP3 ADD SWAP1 POP SWAP3 SWAP2 POP POP JUMP JUMPDEST PUSH32 0x436865636B2074686520746F6B656E20616C6C6F77616E636500000000000000 PUSH1 0x0 DUP3 ADD MSTORE POP JUMP JUMPDEST PUSH1 0x0 PUSH2 0xE54 PUSH1 0x19 DUP4 PUSH2 0xE0D JUMP JUMPDEST SWAP2 POP PUSH2 0xE5F DUP3 PUSH2 0xE1E JUMP JUMPDEST PUSH1 0x20 DUP3 ADD SWAP1 POP SWAP2 SWAP1 POP JUMP JUMPDEST PUSH1 0x0 PUSH1 0x20 DUP3 ADD SWAP1 POP DUP2 DUP2 SUB PUSH1 0x0 DUP4 ADD MSTORE PUSH2 0xE83 DUP2 PUSH2 0xE47 JUMP JUMPDEST SWAP1 POP SWAP2 SWAP1 POP JUMP JUMPDEST PUSH1 0x0 PUSH1 0x60 DUP3 ADD SWAP1 POP PUSH2 0xE9F PUSH1 0x0 DUP4 ADD DUP7 PUSH2 0xCAF JUMP JUMPDEST PUSH2 0xEAC PUSH1 0x20 DUP4 ADD DUP6 PUSH2 0xCAF JUMP JUMPDEST PUSH2 0xEB9 PUSH1 0x40 DUP4 ADD DUP5 PUSH2 0xB9C JUMP JUMPDEST SWAP5 SWAP4 POP POP POP POP JUMP JUMPDEST PUSH32 0x4F6E6C792074686520636F6E7472616374206F776E65722063616E2063616C6C PUSH1 0x0 DUP3 ADD MSTORE PUSH32 0x20746869732066756E6374696F6E000000000000000000000000000000000000 PUSH1 0x20 DUP3 ADD MSTORE POP JUMP JUMPDEST PUSH1 0x0 PUSH2 0xF1D PUSH1 0x2E DUP4 PUSH2 0xE0D JUMP JUMPDEST SWAP2 POP PUSH2 0xF28 DUP3 PUSH2 0xEC1 JUMP JUMPDEST PUSH1 0x40 DUP3 ADD SWAP1 POP SWAP2 SWAP1 POP JUMP JUMPDEST PUSH1 0x0 PUSH1 0x20 DUP3 ADD SWAP1 POP DUP2 DUP2 SUB PUSH1 0x0 DUP4 ADD MSTORE PUSH2 0xF4C DUP2 PUSH2 0xF10 JUMP JUMPDEST SWAP1 POP SWAP2 SWAP1 POP JUMP JUMPDEST PUSH1 0x0 PUSH1 0x20 DUP3 ADD SWAP1 POP PUSH2 0xF68 PUSH1 0x0 DUP4 ADD DUP5 PUSH2 0xCAF JUMP JUMPDEST SWAP3 SWAP2 POP POP JUMP INVALID LOG2 PUSH5 0x6970667358 0x22 SLT KECCAK256 PUSH1 0x5F 0xDC SIGNEXTEND 0xEC 0xE3 CALLDATASIZE CHAINID SWAP1 0xDF 0x4B LOG0 0xC9 ADDMOD STOP 0xF6 LOG0 SWAP7 DUP13 0xE3 0xE2 SWAP4 SWAP4 CREATE BYTE PUSH30 0x3DF5C1AA375464736F6C634300080A003300000000000000000000000000 "
				},
				"gasEstimates": {
					"creation": {
						"codeDepositCost": "800800",
						"executionCost": "infinite",
						"totalCost": "infinite"
					},
					"external": {
						"buyDAI()": "infinite",
						"daiBalances(address)": "2858",
						"depositDAI(uint256)": "infinite",
						"depositUSDC(uint256)": "infinite",
						"getBalance(address)": "infinite",
						"owner()": "2511",
						"sellDAI()": "infinite",
						"usdcBalances(address)": "2836",
						"withdraw(address)": "infinite"
					}
				},
				"methodIdentifiers": {
					"buyDAI()": "05abf904",
					"daiBalances(address)": "ef067342",
					"depositDAI(uint256)": "365833e1",
					"depositUSDC(uint256)": "f688bcfb",
					"getBalance(address)": "f8b2cb4f",
					"owner()": "8da5cb5b",
					"sellDAI()": "15602991",
					"usdcBalances(address)": "a99c68c5",
					"withdraw(address)": "51cff8d9"
				}
			},
			"storageLayout": {
				"storage": [
					{
						"astId": 83,
						"contract": "Flashloan/exchange/Exchange.sol:Exchange",
						"label": "owner",
						"offset": 0,
						"slot": "0",
						"type": "t_address_payable"
					},
					{
						"astId": 92,
						"contract": "Flashloan/exchange/Exchange.sol:Exchange",
						"label": "dai",
						"offset": 0,
						"slot": "1",
						"type": "t_contract(IERC20)77"
					},
					{
						"astId": 95,
						"contract": "Flashloan/exchange/Exchange.sol:Exchange",
						"label": "usdc",
						"offset": 0,
						"slot": "2",
						"type": "t_contract(IERC20)77"
					},
					{
						"astId": 98,
						"contract": "Flashloan/exchange/Exchange.sol:Exchange",
						"label": "dexARate",
						"offset": 0,
						"slot": "3",
						"type": "t_uint256"
					},
					{
						"astId": 101,
						"contract": "Flashloan/exchange/Exchange.sol:Exchange",
						"label": "dexBRate",
						"offset": 0,
						"slot": "4",
						"type": "t_uint256"
					},
					{
						"astId": 105,
						"contract": "Flashloan/exchange/Exchange.sol:Exchange",
						"label": "daiBalances",
						"offset": 0,
						"slot": "5",
						"type": "t_mapping(t_address,t_uint256)"
					},
					{
						"astId": 109,
						"contract": "Flashloan/exchange/Exchange.sol:Exchange",
						"label": "usdcBalances",
						"offset": 0,
						"slot": "6",
						"type": "t_mapping(t_address,t_uint256)"
					}
				],
				"types": {
					"t_address": {
						"encoding": "inplace",
						"label": "address",
						"numberOfBytes": "20"
					},
					"t_address_payable": {
						"encoding": "inplace",
						"label": "address payable",
						"numberOfBytes": "20"
					},
					"t_contract(IERC20)77": {
						"encoding": "inplace",
						"label": "contract IERC20",
						"numberOfBytes": "20"
					},
					"t_mapping(t_address,t_uint256)": {
						"encoding": "mapping",
						"key": "t_address",
						"label": "mapping(address => uint256)",
						"numberOfBytes": "32",
						"value": "t_uint256"
					},
					"t_uint256": {
						"encoding": "inplace",
						"label": "uint256",
						"numberOfBytes": "32"
					}
				}
			},
			"userdoc": {
				"kind": "user",
				"methods": {},
				"version": 1
			}
		}
	}
}